{
  "abi": [
    {
      "anonymous": false,
      "inputs": [
        {
          "indexed": true,
          "internalType": "address",
          "name": "owner",
          "type": "address"
        },
        {
          "indexed": true,
          "internalType": "address",
          "name": "approved",
          "type": "address"
        },
        {
          "indexed": true,
          "internalType": "uint256",
          "name": "tokenId",
          "type": "uint256"
        }
      ],
      "name": "Approval",
      "type": "event"
    },
    {
      "anonymous": false,
      "inputs": [
        {
          "indexed": true,
          "internalType": "address",
          "name": "owner",
          "type": "address"
        },
        {
          "indexed": true,
          "internalType": "address",
          "name": "operator",
          "type": "address"
        },
        {
          "indexed": false,
          "internalType": "bool",
          "name": "approved",
          "type": "bool"
        }
      ],
      "name": "ApprovalForAll",
      "type": "event"
    },
    {
      "anonymous": false,
      "inputs": [
        {
          "indexed": false,
          "internalType": "uint256",
          "name": "currentDailyBorrows",
          "type": "uint256"
        },
        {
          "indexed": false,
          "internalType": "uint256",
          "name": "newBorrowedAmount",
          "type": "uint256"
        }
      ],
      "name": "Borrowed",
      "type": "event"
    },
    {
      "anonymous": false,
      "inputs": [
        {
          "indexed": false,
          "internalType": "uint8",
          "name": "version",
          "type": "uint8"
        }
      ],
      "name": "Initialized",
      "type": "event"
    },
    {
      "anonymous": false,
      "inputs": [
        {
          "indexed": false,
          "internalType": "address",
          "name": "liquidator",
          "type": "address"
        }
      ],
      "name": "LiquidatorAdded",
      "type": "event"
    },
    {
      "anonymous": false,
      "inputs": [
        {
          "indexed": false,
          "internalType": "address",
          "name": "liquidator",
          "type": "address"
        }
      ],
      "name": "LiquidatorRemoved",
      "type": "event"
    },
    {
      "anonymous": false,
      "inputs": [
        {
          "indexed": true,
          "internalType": "uint256",
          "name": "loanId",
          "type": "uint256"
        },
        {
          "indexed": false,
          "internalType": "uint256",
          "name": "nft",
          "type": "uint256"
        },
        {
          "indexed": false,
          "internalType": "uint256",
          "name": "interest",
          "type": "uint256"
        },
        {
          "indexed": false,
          "internalType": "uint256",
          "name": "startTime",
          "type": "uint256"
        },
        {
          "indexed": false,
          "internalType": "uint216",
          "name": "borrowed",
          "type": "uint216"
        }
      ],
      "name": "LoanCreated",
      "type": "event"
    },
    {
      "anonymous": false,
      "inputs": [
        {
          "indexed": true,
          "internalType": "address",
          "name": "previousOwner",
          "type": "address"
        },
        {
          "indexed": true,
          "internalType": "address",
          "name": "newOwner",
          "type": "address"
        }
      ],
      "name": "OwnershipTransferred",
      "type": "event"
    },
    {
      "anonymous": false,
      "inputs": [
        {
          "indexed": false,
          "internalType": "uint256",
          "name": "currentDailyBorrows",
          "type": "uint256"
        },
        {
          "indexed": false,
          "internalType": "uint256",
          "name": "amountReduced",
          "type": "uint256"
        }
      ],
      "name": "ReducedDailyBorrows",
      "type": "event"
    },
    {
      "anonymous": false,
      "inputs": [
        {
          "indexed": true,
          "internalType": "address",
          "name": "from",
          "type": "address"
        },
        {
          "indexed": true,
          "internalType": "address",
          "name": "to",
          "type": "address"
        },
        {
          "indexed": true,
          "internalType": "uint256",
          "name": "tokenId",
          "type": "uint256"
        }
      ],
      "name": "Transfer",
      "type": "event"
    },
    {
      "stateMutability": "nonpayable",
      "type": "fallback"
    },
    {
      "inputs": [
        {
          "internalType": "address",
          "name": "liq",
          "type": "address"
        }
      ],
      "name": "addLiquidator",
      "outputs": [],
      "stateMutability": "nonpayable",
      "type": "function"
    },
    {
      "inputs": [
        {
          "internalType": "address",
          "name": "to",
          "type": "address"
        },
        {
          "internalType": "uint256",
          "name": "tokenId",
          "type": "uint256"
        }
      ],
      "name": "approve",
      "outputs": [],
      "stateMutability": "nonpayable",
      "type": "function"
    },
    {
      "inputs": [
        {
          "internalType": "address",
          "name": "owner",
          "type": "address"
        }
      ],
      "name": "balanceOf",
      "outputs": [
        {
          "internalType": "uint256",
          "name": "",
          "type": "uint256"
        }
      ],
      "stateMutability": "view",
      "type": "function"
    },
    {
      "inputs": [
        {
          "internalType": "uint256[]",
          "name": "nftId",
          "type": "uint256[]"
        },
        {
          "internalType": "uint216",
          "name": "price",
          "type": "uint216"
        },
        {
          "internalType": "uint256",
          "name": "deadline",
          "type": "uint256"
        },
        {
          "internalType": "uint256",
          "name": "maxInterest",
          "type": "uint256"
        },
        {
          "internalType": "uint256",
          "name": "totalToBorrow",
          "type": "uint256"
        },
        {
          "internalType": "uint8",
          "name": "v",
          "type": "uint8"
        },
        {
          "internalType": "bytes32",
          "name": "r",
          "type": "bytes32"
        },
        {
          "internalType": "bytes32",
          "name": "s",
          "type": "bytes32"
        }
      ],
      "name": "borrow",
      "outputs": [],
      "stateMutability": "nonpayable",
      "type": "function"
    },
    {
      "inputs": [
        {
          "internalType": "uint256",
          "name": "_maxInterestPerEthPerSecond",
          "type": "uint256"
        },
        {
          "internalType": "uint256",
          "name": "_minimumInterest",
          "type": "uint256"
        }
      ],
      "name": "changeInterest",
      "outputs": [],
      "stateMutability": "nonpayable",
      "type": "function"
    },
    {
      "inputs": [
        {
          "internalType": "uint256",
          "name": "_ltv",
          "type": "uint256"
        }
      ],
      "name": "changeLTV",
      "outputs": [],
      "stateMutability": "nonpayable",
      "type": "function"
    },
    {
      "inputs": [
        {
          "internalType": "uint216",
          "name": "price",
          "type": "uint216"
        },
        {
          "internalType": "uint256",
          "name": "deadline",
          "type": "uint256"
        },
        {
          "internalType": "uint8",
          "name": "v",
          "type": "uint8"
        },
        {
          "internalType": "bytes32",
          "name": "r",
          "type": "bytes32"
        },
        {
          "internalType": "bytes32",
          "name": "s",
          "type": "bytes32"
        }
      ],
      "name": "checkOracle",
      "outputs": [],
      "stateMutability": "view",
      "type": "function"
    },
    {
      "inputs": [
        {
          "internalType": "uint256",
          "name": "priceOfNextItem",
          "type": "uint256"
        }
      ],
      "name": "currentAnnualInterest",
      "outputs": [
        {
          "internalType": "uint256",
          "name": "interest",
          "type": "uint256"
        }
      ],
      "stateMutability": "view",
      "type": "function"
    },
    {
      "inputs": [],
      "name": "deposit",
      "outputs": [],
      "stateMutability": "payable",
      "type": "function"
    },
    {
      "inputs": [
        {
          "components": [
            {
              "internalType": "uint256",
              "name": "nft",
              "type": "uint256"
            },
            {
              "internalType": "uint256",
              "name": "interest",
              "type": "uint256"
            },
            {
              "internalType": "uint40",
              "name": "startTime",
              "type": "uint40"
            },
            {
              "internalType": "uint216",
              "name": "borrowed",
              "type": "uint216"
            }
          ],
          "internalType": "struct LendingPool.Loan",
          "name": "loan",
          "type": "tuple"
        },
        {
          "internalType": "address",
          "name": "to",
          "type": "address"
        }
      ],
      "name": "doEffectiveAltruism",
      "outputs": [],
      "stateMutability": "nonpayable",
      "type": "function"
    },
    {
      "inputs": [],
      "name": "emergencyShutdown",
      "outputs": [],
      "stateMutability": "nonpayable",
      "type": "function"
    },
    {
      "inputs": [],
      "name": "factory",
      "outputs": [
        {
          "internalType": "address",
          "name": "",
          "type": "address"
        }
      ],
      "stateMutability": "view",
      "type": "function"
    },
    {
      "inputs": [
        {
          "internalType": "uint256",
          "name": "tokenId",
          "type": "uint256"
        }
      ],
      "name": "getApproved",
      "outputs": [
        {
          "internalType": "address",
          "name": "",
          "type": "address"
        }
      ],
      "stateMutability": "view",
      "type": "function"
    },
    {
      "inputs": [],
      "name": "getDailyBorrows",
      "outputs": [
        {
          "internalType": "uint256",
          "name": "maxInstantBorrow",
          "type": "uint256"
        },
        {
          "internalType": "uint256",
          "name": "dailyBorrows",
          "type": "uint256"
        },
        {
          "internalType": "uint256",
          "name": "maxDailyBorrowsLimit",
          "type": "uint256"
        }
      ],
      "stateMutability": "view",
      "type": "function"
    },
    {
      "inputs": [
        {
          "internalType": "uint256",
          "name": "nftId",
          "type": "uint256"
        },
        {
          "internalType": "uint256",
          "name": "interest",
          "type": "uint256"
        },
        {
          "internalType": "uint256",
          "name": "startTime",
          "type": "uint256"
        },
        {
          "internalType": "uint216",
          "name": "price",
          "type": "uint216"
        }
      ],
      "name": "getLoanId",
      "outputs": [
        {
          "internalType": "uint256",
          "name": "id",
          "type": "uint256"
        }
      ],
      "stateMutability": "pure",
      "type": "function"
    },
    {
      "inputs": [
        {
          "components": [
            {
              "internalType": "uint256",
              "name": "nft",
              "type": "uint256"
            },
            {
              "internalType": "uint256",
              "name": "interest",
              "type": "uint256"
            },
            {
              "internalType": "uint40",
              "name": "startTime",
              "type": "uint40"
            },
            {
              "internalType": "uint216",
              "name": "borrowed",
              "type": "uint216"
            }
          ],
          "internalType": "struct LendingPool.Loan",
          "name": "loan",
          "type": "tuple"
        }
      ],
      "name": "infoToRepayLoan",
      "outputs": [
        {
          "internalType": "uint256",
          "name": "deadline",
          "type": "uint256"
        },
        {
          "internalType": "uint256",
          "name": "totalRepay",
          "type": "uint256"
        },
        {
          "internalType": "uint256",
          "name": "principal",
          "type": "uint256"
        },
        {
          "internalType": "uint256",
          "name": "interest",
          "type": "uint256"
        },
        {
          "internalType": "uint256",
          "name": "lateFees",
          "type": "uint256"
        }
      ],
      "stateMutability": "view",
      "type": "function"
    },
    {
      "inputs": [
        {
          "internalType": "address",
          "name": "_oracle",
          "type": "address"
        },
        {
          "internalType": "uint256",
          "name": "_maxPrice",
          "type": "uint256"
        },
        {
          "internalType": "uint256",
          "name": "_maxDailyBorrows",
          "type": "uint256"
        },
        {
          "internalType": "string",
          "name": "_name",
          "type": "string"
        },
        {
          "internalType": "string",
          "name": "_symbol",
          "type": "string"
        },
        {
          "components": [
            {
              "internalType": "uint256",
              "name": "maxVariableInterestPerEthPerSecond",
              "type": "uint256"
            },
            {
              "internalType": "uint256",
              "name": "minimumInterest",
              "type": "uint256"
            },
            {
              "internalType": "uint256",
              "name": "ltv",
              "type": "uint256"
            }
          ],
          "internalType": "struct LendingPool.Interests",
          "name": "interests",
          "type": "tuple"
        },
        {
          "internalType": "address",
          "name": "_owner",
          "type": "address"
        },
        {
          "internalType": "address",
          "name": "_nftContract",
          "type": "address"
        },
        {
          "internalType": "address",
          "name": "_factory",
          "type": "address"
        },
        {
          "internalType": "uint96",
          "name": "_maxLoanLength",
          "type": "uint96"
        }
      ],
      "name": "initialize",
      "outputs": [],
      "stateMutability": "nonpayable",
      "type": "function"
    },
    {
      "inputs": [
        {
          "internalType": "address",
          "name": "owner",
          "type": "address"
        },
        {
          "internalType": "address",
          "name": "operator",
          "type": "address"
        }
      ],
      "name": "isApprovedForAll",
      "outputs": [
        {
          "internalType": "bool",
          "name": "",
          "type": "bool"
        }
      ],
      "stateMutability": "view",
      "type": "function"
    },
    {
      "inputs": [
        {
          "internalType": "address",
          "name": "",
          "type": "address"
        }
      ],
      "name": "liquidators",
      "outputs": [
        {
          "internalType": "bool",
          "name": "",
          "type": "bool"
        }
      ],
      "stateMutability": "view",
      "type": "function"
    },
    {
      "inputs": [],
      "name": "ltv",
      "outputs": [
        {
          "internalType": "uint256",
          "name": "",
          "type": "uint256"
        }
      ],
      "stateMutability": "view",
      "type": "function"
    },
    {
      "inputs": [],
      "name": "maxLoanLength",
      "outputs": [
        {
          "internalType": "uint96",
          "name": "",
          "type": "uint96"
        }
      ],
      "stateMutability": "view",
      "type": "function"
    },
    {
      "inputs": [],
      "name": "maxPrice",
      "outputs": [
        {
          "internalType": "uint256",
          "name": "",
          "type": "uint256"
        }
      ],
      "stateMutability": "view",
      "type": "function"
    },
    {
      "inputs": [],
      "name": "maxVariableInterestPerEthPerSecond",
      "outputs": [
        {
          "internalType": "uint256",
          "name": "",
          "type": "uint256"
        }
      ],
      "stateMutability": "view",
      "type": "function"
    },
    {
      "inputs": [],
      "name": "minimumInterest",
      "outputs": [
        {
          "internalType": "uint256",
          "name": "",
          "type": "uint256"
        }
      ],
      "stateMutability": "view",
      "type": "function"
    },
    {
      "inputs": [],
      "name": "name",
      "outputs": [
        {
          "internalType": "string",
          "name": "",
          "type": "string"
        }
      ],
      "stateMutability": "view",
      "type": "function"
    },
    {
      "inputs": [],
      "name": "nftContract",
      "outputs": [
        {
          "internalType": "contract IERC721",
          "name": "",
          "type": "address"
        }
      ],
      "stateMutability": "view",
      "type": "function"
    },
    {
      "inputs": [],
      "name": "oracle",
      "outputs": [
        {
          "internalType": "address",
          "name": "",
          "type": "address"
        }
      ],
      "stateMutability": "view",
      "type": "function"
    },
    {
      "inputs": [],
      "name": "owner",
      "outputs": [
        {
          "internalType": "address",
          "name": "",
          "type": "address"
        }
      ],
      "stateMutability": "view",
      "type": "function"
    },
    {
      "inputs": [
        {
          "internalType": "uint256",
          "name": "tokenId",
          "type": "uint256"
        }
      ],
      "name": "ownerOf",
      "outputs": [
        {
          "internalType": "address",
          "name": "",
          "type": "address"
        }
      ],
      "stateMutability": "view",
      "type": "function"
    },
    {
      "inputs": [
        {
          "internalType": "address",
          "name": "liq",
          "type": "address"
        }
      ],
      "name": "removeLiquidator",
      "outputs": [],
      "stateMutability": "nonpayable",
      "type": "function"
    },
    {
      "inputs": [],
      "name": "renounceOwnership",
      "outputs": [],
      "stateMutability": "nonpayable",
      "type": "function"
    },
    {
      "inputs": [
        {
          "components": [
            {
              "internalType": "uint256",
              "name": "nft",
              "type": "uint256"
            },
            {
              "internalType": "uint256",
              "name": "interest",
              "type": "uint256"
            },
            {
              "internalType": "uint40",
              "name": "startTime",
              "type": "uint40"
            },
            {
              "internalType": "uint216",
              "name": "borrowed",
              "type": "uint216"
            }
          ],
          "internalType": "struct LendingPool.Loan[]",
          "name": "loansToRepay",
          "type": "tuple[]"
        },
        {
          "internalType": "address",
          "name": "from",
          "type": "address"
        }
      ],
      "name": "repay",
      "outputs": [],
      "stateMutability": "payable",
      "type": "function"
    },
    {
      "inputs": [
        {
          "internalType": "address",
          "name": "from",
          "type": "address"
        },
        {
          "internalType": "address",
          "name": "to",
          "type": "address"
        },
        {
          "internalType": "uint256",
          "name": "tokenId",
          "type": "uint256"
        }
      ],
      "name": "safeTransferFrom",
      "outputs": [],
      "stateMutability": "nonpayable",
      "type": "function"
    },
    {
      "inputs": [
        {
          "internalType": "address",
          "name": "from",
          "type": "address"
        },
        {
          "internalType": "address",
          "name": "to",
          "type": "address"
        },
        {
          "internalType": "uint256",
          "name": "tokenId",
          "type": "uint256"
        },
        {
          "internalType": "bytes",
          "name": "data",
          "type": "bytes"
        }
      ],
      "name": "safeTransferFrom",
      "outputs": [],
      "stateMutability": "nonpayable",
      "type": "function"
    },
    {
      "inputs": [
        {
          "internalType": "address",
          "name": "operator",
          "type": "address"
        },
        {
          "internalType": "bool",
          "name": "approved",
          "type": "bool"
        }
      ],
      "name": "setApprovalForAll",
      "outputs": [],
      "stateMutability": "nonpayable",
      "type": "function"
    },
    {
      "inputs": [
        {
          "internalType": "uint256",
          "name": "_maxDailyBorrows",
          "type": "uint256"
        }
      ],
      "name": "setMaxDailyBorrows",
      "outputs": [],
      "stateMutability": "nonpayable",
      "type": "function"
    },
    {
      "inputs": [
        {
          "internalType": "uint256",
          "name": "newMaxPrice",
          "type": "uint256"
        }
      ],
      "name": "setMaxPrice",
      "outputs": [],
      "stateMutability": "nonpayable",
      "type": "function"
    },
    {
      "inputs": [
        {
          "internalType": "address",
          "name": "newValue",
          "type": "address"
        }
      ],
      "name": "setOracle",
      "outputs": [],
      "stateMutability": "nonpayable",
      "type": "function"
    },
    {
      "inputs": [
        {
          "internalType": "bytes4",
          "name": "interfaceId",
          "type": "bytes4"
        }
      ],
      "name": "supportsInterface",
      "outputs": [
        {
          "internalType": "bool",
          "name": "",
          "type": "bool"
        }
      ],
      "stateMutability": "view",
      "type": "function"
    },
    {
      "inputs": [],
      "name": "symbol",
      "outputs": [
        {
          "internalType": "string",
          "name": "",
          "type": "string"
        }
      ],
      "stateMutability": "view",
      "type": "function"
    },
    {
      "inputs": [
        {
          "internalType": "uint256",
          "name": "tokenId",
          "type": "uint256"
        }
      ],
      "name": "tokenURI",
      "outputs": [
        {
          "internalType": "string",
          "name": "",
          "type": "string"
        }
      ],
      "stateMutability": "view",
      "type": "function"
    },
    {
      "inputs": [],
      "name": "totalBorrowed",
      "outputs": [
        {
          "internalType": "uint256",
          "name": "",
          "type": "uint256"
        }
      ],
      "stateMutability": "view",
      "type": "function"
    },
    {
      "inputs": [
        {
          "internalType": "address",
          "name": "from",
          "type": "address"
        },
        {
          "internalType": "address",
          "name": "to",
          "type": "address"
        },
        {
          "internalType": "uint256",
          "name": "tokenId",
          "type": "uint256"
        }
      ],
      "name": "transferFrom",
      "outputs": [],
      "stateMutability": "nonpayable",
      "type": "function"
    },
    {
      "inputs": [
        {
          "internalType": "address",
          "name": "newOwner",
          "type": "address"
        }
      ],
      "name": "transferOwnership",
      "outputs": [],
      "stateMutability": "nonpayable",
      "type": "function"
    },
    {
      "inputs": [
        {
          "internalType": "uint256",
          "name": "amount",
          "type": "uint256"
        }
      ],
      "name": "withdraw",
      "outputs": [],
      "stateMutability": "nonpayable",
      "type": "function"
    }
  ],
  "bytecode": {
    "object": "0x608060405234801561001057600080fd5b506135d5806100206000396000f3fe6080604052600436106102725760003560e01c80638da5cb5b1161014f578063d18c7015116100c1578063edca92d81161007a578063edca92d81461077f578063efb744001461079f578063f2fde38b146107bf578063f43952e3146107df578063f90cdb36146107ff578063fc5dd1461461082f57610272565b8063d18c7015146106e0578063d1c0e087146106f3578063d56d229d14610713578063dd642f9114610733578063e38d6b5c14610749578063e985e9c51461075f57610272565b8063a56feea811610113578063a56feea814610628578063b88d4fde14610658578063bc5e1bac14610678578063c45a015514610698578063c87b56dd146106b8578063d0e30db0146106d857610272565b80638da5cb5b1461059f578063900b6e27146105bd57806395d89b41146105dd5780639bf5044c146105f2578063a22cb4651461060857610272565b80634c19386c116101e857806370a08231116101ac57806370a08231146104cb578063715018a6146104eb578063723d5126146105005780637adbf9731461053f5780637c3466da1461055f5780637dc0d1d01461057f57610272565b80634c19386c146104175780634c4e7f6f1461042d5780636352211e1461044d57806363bcb0af1461046d5780636fb49d73146104b557610272565b806323b872dd1161023a57806323b872dd146103545780632e1a7d4d146103745780633403c2fc14610394578063364ba2af146103a95780633eb29192146103d757806342842e0e146103f757610272565b806301ffc9a71461028357806306fdde03146102b8578063081812fc146102da578063095ea7b314610312578063181b484214610334575b34801561027e57600080fd5b600080fd5b34801561028f57600080fd5b506102a361029e366004612a95565b61084f565b60405190151581526020015b60405180910390f35b3480156102c457600080fd5b506102cd6108a1565b6040516102af9190612b02565b3480156102e657600080fd5b506102fa6102f5366004612b15565b610933565b6040516001600160a01b0390911681526020016102af565b34801561031e57600080fd5b5061033261032d366004612b4a565b61095a565b005b34801561034057600080fd5b5061033261034f366004612b9c565b610a74565b34801561036057600080fd5b5061033261036f366004612bea565b610c25565b34801561038057600080fd5b5061033261038f366004612b15565b610c56565b3480156103a057600080fd5b50610332610c6b565b3480156103b557600080fd5b506103c96103c4366004612c26565b610c89565b6040519081526020016102af565b3480156103e357600080fd5b506103326103f2366004612c65565b610cda565b34801561040357600080fd5b50610332610412366004612bea565b610ced565b34801561042357600080fd5b506103c960d05481565b34801561043957600080fd5b50610332610448366004612c87565b610d08565b34801561045957600080fd5b506102fa610468366004612b15565b610d6b565b34801561047957600080fd5b5061048d610488366004612cba565b610dcb565b604080519586526020860194909452928401919091526060830152608082015260a0016102af565b3480156104c157600080fd5b506103c960cb5481565b3480156104d757600080fd5b506103c96104e6366004612c87565b610f06565b3480156104f757600080fd5b50610332610f8c565b34801561050c57600080fd5b5060cf5461052790600160a01b90046001600160601b031681565b6040516001600160601b0390911681526020016102af565b34801561054b57600080fd5b5061033261055a366004612c87565b610fa0565b34801561056b57600080fd5b5061033261057a366004612cd6565b611014565b34801561058b57600080fd5b5060cd546102fa906001600160a01b031681565b3480156105ab57600080fd5b506033546001600160a01b03166102fa565b3480156105c957600080fd5b506103326105d8366004612b15565b6111e0565b3480156105e957600080fd5b506102cd6111ed565b3480156105fe57600080fd5b506103c960c95481565b34801561061457600080fd5b50610332610623366004612d0a565b6111fc565b34801561063457600080fd5b5061063d61120b565b604080519384526020840192909252908201526060016102af565b34801561066457600080fd5b50610332610673366004612dd2565b61129a565b34801561068457600080fd5b50610332610693366004612e4e565b6112d2565b3480156106a457600080fd5b5060ce546102fa906001600160a01b031681565b3480156106c457600080fd5b506102cd6106d3366004612b15565b61140f565b610332611476565b6103326106ee366004612f13565b61147e565b3480156106ff57600080fd5b5061033261070e366004612b15565b611534565b34801561071f57600080fd5b5060cf546102fa906001600160a01b031681565b34801561073f57600080fd5b506103c960ca5481565b34801561075557600080fd5b506103c960cc5481565b34801561076b57600080fd5b506102a361077a366004612f97565b611541565b34801561078b57600080fd5b5061033261079a36600461300a565b61156f565b3480156107ab57600080fd5b506103326107ba366004612c87565b611775565b3480156107cb57600080fd5b506103326107da366004612c87565b6117ce565b3480156107eb57600080fd5b506103326107fa366004612b15565b611844565b34801561080b57600080fd5b506102a361081a366004612c87565b60d36020526000908152604090205460ff1681565b34801561083b57600080fd5b506103c961084a366004612b15565b611851565b60006001600160e01b031982166380ac58cd60e01b148061088057506001600160e01b03198216635b5e139f60e01b145b8061089b57506301ffc9a760e01b6001600160e01b03198316145b92915050565b6060609780546108b0906130ea565b80601f01602080910402602001604051908101604052809291908181526020018280546108dc906130ea565b80156109295780601f106108fe57610100808354040283529160200191610929565b820191906000526020600020905b81548152906001019060200180831161090c57829003601f168201915b5050505050905090565b600061093e8261188c565b506000908152609b60205260409020546001600160a01b031690565b600061096582610d6b565b9050806001600160a01b0316836001600160a01b0316036109d75760405162461bcd60e51b815260206004820152602160248201527f4552433732313a20617070726f76616c20746f2063757272656e74206f776e656044820152603960f91b60648201526084015b60405180910390fd5b336001600160a01b03821614806109f357506109f38133611541565b610a655760405162461bcd60e51b815260206004820152603d60248201527f4552433732313a20617070726f76652063616c6c6572206973206e6f7420746f60448201527f6b656e206f776e6572206f7220617070726f76656420666f7220616c6c00000060648201526084016109ce565b610a6f83836118eb565b505050565b834210610ab35760405162461bcd60e51b815260206004820152600d60248201526c3232b0b23634b7329037bb32b960991b60448201526064016109ce565b60cd5460cf546040517f19457468657265756d205369676e6564204d6573736167653a0a3131310000006020820152602888901b64ffffffffff1916603d8201526058810187905246607882015260609190911b6bffffffffffffffffffffffff191660988201526001600160a01b039091169060019060ac0160408051601f198184030181528282528051602091820120600084529083018083525260ff871690820152606081018590526080810184905260a0016020604051602081039080840390855afa158015610b8b573d6000803e3d6000fd5b505050602060405103516001600160a01b031614610bd85760405162461bcd60e51b815260206004820152600a6024820152696e6f74206f7261636c6560b01b60448201526064016109ce565b60cc54856001600160d81b031610610c1e5760405162461bcd60e51b81526020600482015260096024820152686d617820707269636560b81b60448201526064016109ce565b5050505050565b610c2f3382611959565b610c4b5760405162461bcd60e51b81526004016109ce9061311e565b610a6f8383836119b7565b610c5e611b09565b610c683382611b63565b50565b60ce546001600160a01b03163314610c8257600080fd5b600060cc55565b6040805160208101869052908101849052606081018390526001600160d81b038216608082015260009060a0016040516020818303038152906040528051906020012060001c90505b949350505050565b610ce2611b09565b60c99190915560ca55565b610a6f8383836040518060200160405280600081525061129a565b610d10611b09565b6001600160a01b038116600081815260d36020908152604091829020805460ff1916600117905590519182527fb0a258c58bd721bcb64542ee0e4e4c843ae58242f908c0681ad82d40d688f1fa91015b60405180910390a150565b6000818152609960205260408120546001600160a01b03168061089b5760405162461bcd60e51b8152602060048201526018602482015277115490cdcc8c4e881a5b9d985b1a59081d1bdad95b88125160421b60448201526064016109ce565b60cf546000908190819081908190600160a01b90046001600160601b0316610df9606088016040890161316b565b64ffffffffff16610e0a91906131a8565b6001600160601b03169450670de0b6b3a7640000610e2e60808801606089016131cf565b6001600160d81b03166020880135610e4c60608a0160408b0161316b565b610e5d9064ffffffffff16426131ea565b610e6791906131fd565b610e7191906131fd565b610e7b9190613214565b915084421115610ec75762015180610e9960808801606089016131cf565b6001600160d81b0316610eac87426131ea565b610eb691906131fd565b610ec09190613214565b9050610ecb565b5060005b610edb60808701606088016131cf565b6001600160d81b0316925080610ef18385613236565b610efb9190613236565b935091939590929450565b60006001600160a01b038216610f705760405162461bcd60e51b815260206004820152602960248201527f4552433732313a2061646472657373207a65726f206973206e6f7420612076616044820152683634b21037bbb732b960b91b60648201526084016109ce565b506001600160a01b03166000908152609a602052604090205490565b610f94611b09565b610f9e6000611c7c565b565b610fa8611b09565b6001600160a01b038116610ff25760405162461bcd60e51b815260206004820152601160248201527006f7261636c652063616e2774206265203607c1b60448201526064016109ce565b60cd80546001600160a01b0319166001600160a01b0392909216919091179055565b33600090815260d3602052604090205460ff16151560011461103557600080fd5b600061106883356020850135611051606087016040880161316b565b64ffffffffff166103c460808801606089016131cf565b6000818152609960205260409020549091506001600160a01b03166110bd5760405162461bcd60e51b815260206004820152600b60248201526a1b1bd85b8818db1bdcd95960aa1b60448201526064016109ce565b60cf54600160a01b90046001600160601b03166110e0606085016040860161316b565b64ffffffffff166110f191906131a8565b6001600160601b031642116111365760405162461bcd60e51b815260206004820152600b60248201526a1b9bdd08195e1c1a5c995960aa1b60448201526064016109ce565b61114660808401606085016131cf565b6001600160d81b031660d0600082825461116091906131ea565b9091555061116f905081611cce565b60cf546040516323b872dd60e01b81523060048201526001600160a01b03848116602483015285356044830152909116906323b872dd90606401600060405180830381600087803b1580156111c357600080fd5b505af11580156111d7573d6000803e3d6000fd5b50505050505050565b6111e8611b09565b60d155565b6060609880546108b0906130ea565b611207338383611d51565b5050565b60d25460009081908190819061122f90600160d81b900464ffffffffff16426131ea565b9050611261620151808260d15461124691906131fd565b6112509190613214565b60d2546001600160d81b0316611e1f565b60d25461127791906001600160d81b03166131ea565b60d15490935091506112924761128d85856131ea565b611e1f565b935050909192565b6112a43383611959565b6112c05760405162461bcd60e51b81526004016109ce9061311e565b6112cc84848484611e35565b50505050565b6112df8787858585610a74565b670de0b6b3a764000060cb54886001600160d81b03166112ff91906131fd565b6113099190613214565b9650876000611321826001600160d81b038b166131fd565b90508581146113605760405162461bcd60e51b815260206004820152600b60248201526a1b1d1d8818da185b99d95960aa1b60448201526064016109ce565b600061136b82611e68565b90508781111561137a57600080fd5b8160d0600082825461138c9190613236565b90915550600090505b838110156113c8576113c08d8d838181106113b2576113b2613249565b905060200201358c84611ebe565b600101611395565b336000908152609a6020526040812080548692906113e7908490613236565b909155506113f6905083612034565b6114003384611b63565b50505050505050505050505050565b606061141a8261188c565b60006114246121a2565b90506000815111611444576040518060200160405280600081525061146f565b8061144e8461222c565b60405160200161145f92919061325f565b6040516020818303038152906040525b9392505050565b610f9e611b09565b336001600160a01b038216148061149f575060ce546001600160a01b031633145b6114a857600080fd5b816000805b828110156114ea576114d68686838181106114ca576114ca613249565b905060800201856122c0565b6114e09083613236565b91506001016114ad565b6001600160a01b0384166000908152609a6020526040812080548592906115129084906131ea565b9091555061152c905061152583346131ea565b3390611b63565b505050505050565b61153c611b09565b60cb55565b6001600160a01b039182166000908152609c6020908152604080832093909416825291909152205460ff1690565b600054610100900460ff161580801561158f5750600054600160ff909116105b806115a95750303b1580156115a9575060005460ff166001145b61160c5760405162461bcd60e51b815260206004820152602e60248201527f496e697469616c697a61626c653a20636f6e747261637420697320616c72656160448201526d191e481a5b9a5d1a585b1a5e995960921b60648201526084016109ce565b6000805460ff19166001179055801561162f576000805461ff0019166101001790555b6116376125be565b61164188886125ee565b6001600160a01b038b1661168b5760405162461bcd60e51b815260206004820152601160248201527006f7261636c652063616e2774206265203607c1b60448201526064016109ce565b60cd80546001600160a01b0319166001600160a01b038d1617905560cc8a905560d189905560d280546001600160d81b0316600160d81b4264ffffffffff1602179055853560c955602086013560ca55604086013560cb556116ec856117ce565b60ce80546001600160a01b0319166001600160a01b03858116919091179091558416600160a01b6001600160601b038416021760cf558015611768576000805461ff0019169055604051600181527f7f26b83ff96e1f2b6a682f133852f6798a09c465da95921460cefb38474024989060200160405180910390a15b5050505050505050505050565b61177d611b09565b6001600160a01b038116600081815260d36020908152604091829020805460ff1916905590519182527f06091797105e9997e06a57873c81a60a419050caf1d0ffedacc53ffc767f84f59101610d60565b6117d6611b09565b6001600160a01b03811661183b5760405162461bcd60e51b815260206004820152602660248201527f4f776e61626c653a206e6577206f776e657220697320746865207a65726f206160448201526564647265737360d01b60648201526084016109ce565b610c6881611c7c565b61184c611b09565b60cc55565b60008060d054476118629190613236565b600003611872575060ca5461187e565b61187b83611e68565b90505b61146f816301e133806131fd565b6000818152609960205260409020546001600160a01b0316610c685760405162461bcd60e51b8152602060048201526018602482015277115490cdcc8c4e881a5b9d985b1a59081d1bdad95b88125160421b60448201526064016109ce565b6000818152609b6020526040902080546001600160a01b0319166001600160a01b038416908117909155819061192082610d6b565b6001600160a01b03167f8c5be1e5ebec7d5bd14f71427d1e84f3dd0314c0f7b2291e5b200ac8c7c3b92560405160405180910390a45050565b60008061196583610d6b565b9050806001600160a01b0316846001600160a01b0316148061198c575061198c8185611541565b80610cd25750836001600160a01b03166119a584610933565b6001600160a01b031614949350505050565b826001600160a01b03166119ca82610d6b565b6001600160a01b0316146119f05760405162461bcd60e51b81526004016109ce9061328e565b6001600160a01b038216611a525760405162461bcd60e51b8152602060048201526024808201527f4552433732313a207472616e7366657220746f20746865207a65726f206164646044820152637265737360e01b60648201526084016109ce565b826001600160a01b0316611a6582610d6b565b6001600160a01b031614611a8b5760405162461bcd60e51b81526004016109ce9061328e565b6000818152609b6020908152604080832080546001600160a01b03199081169091556001600160a01b03878116808652609a85528386208054600019019055908716808652838620805460010190558686526099909452828520805490921684179091559051849360008051602061358083398151915291a4505050565b6033546001600160a01b03163314610f9e5760405162461bcd60e51b815260206004820181905260248201527f4f776e61626c653a2063616c6c6572206973206e6f7420746865206f776e657260448201526064016109ce565b80471015611bb35760405162461bcd60e51b815260206004820152601d60248201527f416464726573733a20696e73756666696369656e742062616c616e636500000060448201526064016109ce565b6000826001600160a01b03168260405160006040518083038185875af1925050503d8060008114611c00576040519150601f19603f3d011682016040523d82523d6000602084013e611c05565b606091505b5050905080610a6f5760405162461bcd60e51b815260206004820152603a60248201527f416464726573733a20756e61626c6520746f2073656e642076616c75652c207260448201527f6563697069656e74206d6179206861766520726576657274656400000000000060648201526084016109ce565b603380546001600160a01b038381166001600160a01b0319831681179093556040519116919082907f8be0079c531659141344cd1fd0a4f28419497f9722a3daafe3b4186f6b6457e090600090a35050565b6000611cd982610d6b565b9050611ce482610d6b565b6000838152609b6020908152604080832080546001600160a01b03199081169091556001600160a01b038516808552609a84528285208054600019019055878552609990935281842080549091169055519293508492600080516020613580833981519152908390a45050565b816001600160a01b0316836001600160a01b031603611db25760405162461bcd60e51b815260206004820152601960248201527f4552433732313a20617070726f766520746f2063616c6c65720000000000000060448201526064016109ce565b6001600160a01b038381166000818152609c6020908152604080832094871680845294825291829020805460ff191686151590811790915591519182527f17307eab39ab6107e8899845ad3d59bd9653f200f220920489ca2b5937696c31910160405180910390a3505050565b6000818310611e2e578161146f565b5090919050565b611e408484846119b7565b611e4c8484848461262e565b6112cc5760405162461bcd60e51b81526004016109ce906132d3565b60008060d054600284611e7b9190613214565b611e859190613236565b9050600060d05447611e979190613236565b60c954611ea490846131fd565b611eae9190613214565b90508060ca54610cd29190613236565b6000611ecc84834286610c89565b6000818152609960205260409020549091506001600160a01b031615611f345760405162461bcd60e51b815260206004820152601c60248201527f4552433732313a20746f6b656e20616c7265616479206d696e7465640000000060448201526064016109ce565b60008181526099602090815260409182902080546001600160a01b03191633179055815186815290810184905242918101919091526001600160d81b038416606082015281907f096fdcc5b68ebd426766200953c7038e72c0918a54ed2336b70c9cbbe7f9081e9060800160405180910390a260405181903390600090600080516020613580833981519152908290a460cf546040516323b872dd60e01b8152336004820152306024820152604481018690526001600160a01b03909116906323b872dd90606401600060405180830381600087803b15801561201657600080fd5b505af115801561202a573d6000803e3d6000fd5b5050505050505050565b60d25460009061205290600160d81b900464ffffffffff16426131ea565b90506000620151808260d15461206891906131fd565b6120729190613214565b60d2549091506001600160d81b03168111156120a85760d280546001600160d81b0319166001600160d81b0385161790556120ec565b60d25483906120c19083906001600160d81b03166131ea565b6120cb9190613325565b60d280546001600160d81b0319166001600160d81b03929092169190911790555b60d15460d2546001600160d81b03161061213b5760405162461bcd60e51b815260206004820152601060248201526f6d6178206461696c7920626f72726f7760801b60448201526064016109ce565b60d280546001600160d81b03908116600160d81b4264ffffffffff160281811790935560408051938316909117835290851660208301527f14a13f958d7fe38fb8529e8d43353b6d9120f52444e486a4077f68a3fc77dcbf910160405180910390a1505050565b60606040518060400160405280601e81526020017f68747470733a2f2f6e66742e6c6c616d616c656e642e636f6d2f6e66742f00008152506121e34661272c565b6121ee3060146127bd565b60cf54612205906001600160a01b031660146127bd565b6040516020016122189493929190613345565b604051602081830303815290604052905090565b6060600061223983612959565b600101905060008167ffffffffffffffff81111561225957612259612d46565b6040519080825280601f01601f191660200182016040528015612283576020820181803683370190505b5090508181016020015b600019016f181899199a1a9b1b9c1cb0b131b232b360811b600a86061a8153600a850494508461228d575b509392505050565b6000806122f4843560208601356122dd606088016040890161316b565b64ffffffffff166103c46080890160608a016131cf565b9050826001600160a01b031661230982610d6b565b6001600160a01b03161461234b5760405162461bcd60e51b81526020600482015260096024820152683737ba1037bbb732b960b91b60448201526064016109ce565b600061235d60808601606087016131cf565b6001600160d81b03169050600061237a606087016040880161316b565b61238b9064ffffffffff16426131ea565b90506000670de0b6b3a7640000836123a760208a0135856131fd565b6123b191906131fd565b6123bb9190613214565b60cf54909150600160a01b90046001600160601b031682111561241d5760cf54620151809084906123fc90600160a01b90046001600160601b0316856131ea565b61240691906131fd565b6124109190613214565b61241a9082613236565b90505b8260d0600082825461242f91906131ea565b9091555061243f90508487612a31565b6201518082101561253b57620151808281039060009061245f83876131fd565b6124699190613214565b60d2549091506001600160d81b03168110156124e15760d280546001600160d81b03808216849003166001600160d81b0319909116811790915560408051918252602082018390527fd8f1ed8e3b40f95ec53c56f8862a64093f1e7f3689b5f3d0fb1d6728c36e63f7910160405180910390a1612538565b60d25460408051600081526001600160d81b0390921660208301527fd8f1ed8e3b40f95ec53c56f8862a64093f1e7f3689b5f3d0fb1d6728c36e63f7910160405180910390a160d280546001600160d81b03191690555b50505b60cf546040516323b872dd60e01b81523060048201526001600160a01b03888116602483015289356044830152909116906323b872dd90606401600060405180830381600087803b15801561258f57600080fd5b505af11580156125a3573d6000803e3d6000fd5b5050505082816125b39190613236565b979650505050505050565b600054610100900460ff166125e55760405162461bcd60e51b81526004016109ce906133bd565b610f9e33611c7c565b600054610100900460ff166126155760405162461bcd60e51b81526004016109ce906133bd565b6097612621838261344e565b506098610a6f828261344e565b60006001600160a01b0384163b1561272457604051630a85bd0160e11b81526001600160a01b0385169063150b7a029061267290339089908890889060040161350e565b6020604051808303816000875af19250505080156126ad575060408051601f3d908101601f191682019092526126aa9181019061354b565b60015b61270a573d8080156126db576040519150601f19603f3d011682016040523d82523d6000602084013e6126e0565b606091505b5080516000036127025760405162461bcd60e51b81526004016109ce906132d3565b805181602001fd5b6001600160e01b031916630a85bd0160e11b149050610cd2565b506001610cd2565b6060600061273983612959565b600101905060008167ffffffffffffffff81111561275957612759612d46565b6040519080825280601f01601f191660200182016040528015612783576020820181803683370190505b5090508181016020015b600019016f181899199a1a9b1b9c1cb0b131b232b360811b600a86061a8153600a8504945084156122b85761278d565b606060006127cc8360026131fd565b6127d7906002613236565b67ffffffffffffffff8111156127ef576127ef612d46565b6040519080825280601f01601f191660200182016040528015612819576020820181803683370190505b509050600360fc1b8160008151811061283457612834613249565b60200101906001600160f81b031916908160001a905350600f60fb1b8160018151811061286357612863613249565b60200101906001600160f81b031916908160001a90535060006128878460026131fd565b612892906001613236565b90505b600181111561290a576f181899199a1a9b1b9c1cb0b131b232b360811b85600f16601081106128c6576128c6613249565b1a60f81b8282815181106128dc576128dc613249565b60200101906001600160f81b031916908160001a90535060049490941c9361290381613568565b9050612895565b50831561146f5760405162461bcd60e51b815260206004820181905260248201527f537472696e67733a20686578206c656e67746820696e73756666696369656e7460448201526064016109ce565b60008072184f03e93ff9f4daa797ed6e38ed64bf6a1f0160401b83106129985772184f03e93ff9f4daa797ed6e38ed64bf6a1f0160401b830492506040015b6d04ee2d6d415b85acef810000000083106129c4576d04ee2d6d415b85acef8100000000830492506020015b662386f26fc1000083106129e257662386f26fc10000830492506010015b6305f5e10083106129fa576305f5e100830492506008015b6127108310612a0e57612710830492506004015b60648310612a20576064830492506002015b600a831061089b5760010192915050565b612a3c6000836118eb565b60008281526099602052604080822080546001600160a01b0319169055518391906001600160a01b03841690600080516020613580833981519152908390a45050565b6001600160e01b031981168114610c6857600080fd5b600060208284031215612aa757600080fd5b813561146f81612a7f565b60005b83811015612acd578181015183820152602001612ab5565b50506000910152565b60008151808452612aee816020860160208601612ab2565b601f01601f19169290920160200192915050565b60208152600061146f6020830184612ad6565b600060208284031215612b2757600080fd5b5035919050565b80356001600160a01b0381168114612b4557600080fd5b919050565b60008060408385031215612b5d57600080fd5b612b6683612b2e565b946020939093013593505050565b80356001600160d81b0381168114612b4557600080fd5b803560ff81168114612b4557600080fd5b600080600080600060a08688031215612bb457600080fd5b612bbd86612b74565b945060208601359350612bd260408701612b8b565b94979396509394606081013594506080013592915050565b600080600060608486031215612bff57600080fd5b612c0884612b2e565b9250612c1660208501612b2e565b9150604084013590509250925092565b60008060008060808587031215612c3c57600080fd5b843593506020850135925060408501359150612c5a60608601612b74565b905092959194509250565b60008060408385031215612c7857600080fd5b50508035926020909101359150565b600060208284031215612c9957600080fd5b61146f82612b2e565b600060808284031215612cb457600080fd5b50919050565b600060808284031215612ccc57600080fd5b61146f8383612ca2565b60008060a08385031215612ce957600080fd5b612cf38484612ca2565b9150612d0160808401612b2e565b90509250929050565b60008060408385031215612d1d57600080fd5b612d2683612b2e565b915060208301358015158114612d3b57600080fd5b809150509250929050565b634e487b7160e01b600052604160045260246000fd5b600067ffffffffffffffff80841115612d7757612d77612d46565b604051601f8501601f19908116603f01168101908282118183101715612d9f57612d9f612d46565b81604052809350858152868686011115612db857600080fd5b858560208301376000602087830101525050509392505050565b60008060008060808587031215612de857600080fd5b612df185612b2e565b9350612dff60208601612b2e565b925060408501359150606085013567ffffffffffffffff811115612e2257600080fd5b8501601f81018713612e3357600080fd5b612e4287823560208401612d5c565b91505092959194509250565b60008060008060008060008060006101008a8c031215612e6d57600080fd5b893567ffffffffffffffff80821115612e8557600080fd5b818c0191508c601f830112612e9957600080fd5b813581811115612ea857600080fd5b8d60208260051b8501011115612ebd57600080fd5b60209283019b509950612ed3918c019050612b74565b965060408a0135955060608a0135945060808a01359350612ef660a08b01612b8b565b925060c08a0135915060e08a013590509295985092959850929598565b600080600060408486031215612f2857600080fd5b833567ffffffffffffffff80821115612f4057600080fd5b818601915086601f830112612f5457600080fd5b813581811115612f6357600080fd5b8760208260071b8501011115612f7857600080fd5b602092830195509350612f8e9186019050612b2e565b90509250925092565b60008060408385031215612faa57600080fd5b612fb383612b2e565b9150612d0160208401612b2e565b600082601f830112612fd257600080fd5b61146f83833560208501612d5c565b600060608284031215612cb457600080fd5b80356001600160601b0381168114612b4557600080fd5b6000806000806000806000806000806101808b8d03121561302a57600080fd5b6130338b612b2e565b995060208b0135985060408b0135975060608b013567ffffffffffffffff8082111561305e57600080fd5b61306a8e838f01612fc1565b985060808d013591508082111561308057600080fd5b5061308d8d828e01612fc1565b96505061309d8c60a08d01612fe1565b94506130ac6101008c01612b2e565b93506130bb6101208c01612b2e565b92506130ca6101408c01612b2e565b91506130d96101608c01612ff3565b90509295989b9194979a5092959850565b600181811c908216806130fe57607f821691505b602082108103612cb457634e487b7160e01b600052602260045260246000fd5b6020808252602d908201527f4552433732313a2063616c6c6572206973206e6f7420746f6b656e206f776e6560408201526c1c881bdc88185c1c1c9bdd9959609a1b606082015260800190565b60006020828403121561317d57600080fd5b813564ffffffffff8116811461146f57600080fd5b634e487b7160e01b600052601160045260246000fd5b6001600160601b038181168382160190808211156131c8576131c8613192565b5092915050565b6000602082840312156131e157600080fd5b61146f82612b74565b8181038181111561089b5761089b613192565b808202811582820484141761089b5761089b613192565b60008261323157634e487b7160e01b600052601260045260246000fd5b500490565b8082018082111561089b5761089b613192565b634e487b7160e01b600052603260045260246000fd5b60008351613271818460208801612ab2565b835190830190613285818360208801612ab2565b01949350505050565b60208082526025908201527f4552433732313a207472616e736665722066726f6d20696e636f72726563742060408201526437bbb732b960d91b606082015260800190565b60208082526032908201527f4552433732313a207472616e7366657220746f206e6f6e20455243373231526560408201527131b2b4bb32b91034b6b83632b6b2b73a32b960711b606082015260800190565b6001600160d81b038181168382160190808211156131c8576131c8613192565b60008551613357818460208a01612ab2565b85519083019061336b818360208a01612ab2565b602f60f81b9101818152855190919061338b816001850160208a01612ab2565b6001920191820181905284516133a8816002850160208901612ab2565b60029201918201526003019695505050505050565b6020808252602b908201527f496e697469616c697a61626c653a20636f6e7472616374206973206e6f74206960408201526a6e697469616c697a696e6760a81b606082015260800190565b601f821115610a6f57600081815260208120601f850160051c8101602086101561342f5750805b601f850160051c820191505b8181101561152c5782815560010161343b565b815167ffffffffffffffff81111561346857613468612d46565b61347c8161347684546130ea565b84613408565b602080601f8311600181146134b157600084156134995750858301515b600019600386901b1c1916600185901b17855561152c565b600085815260208120601f198616915b828110156134e0578886015182559484019460019091019084016134c1565b50858210156134fe5787850151600019600388901b60f8161c191681555b5050505050600190811b01905550565b6001600160a01b038581168252841660208201526040810183905260806060820181905260009061354190830184612ad6565b9695505050505050565b60006020828403121561355d57600080fd5b815161146f81612a7f565b60008161357757613577613192565b50600019019056feddf252ad1be2c89b69c2b068fc378daa952ba7f163c4a11628f55a4df523b3efa2646970667358221220a774d79f874de517d97f9542f14ff86a10e5bac522629343655090465cd3f92d64736f6c63430008110033",
    "linkReferences": {}
  },
  "methodIdentifiers": {
    "addLiquidator(address)": "4c4e7f6f",
    "approve(address,uint256)": "095ea7b3",
    "balanceOf(address)": "70a08231",
    "borrow(uint256[],uint216,uint256,uint256,uint256,uint8,bytes32,bytes32)": "bc5e1bac",
    "changeInterest(uint256,uint256)": "3eb29192",
    "changeLTV(uint256)": "d1c0e087",
    "checkOracle(uint216,uint256,uint8,bytes32,bytes32)": "181b4842",
    "currentAnnualInterest(uint256)": "fc5dd146",
    "deposit()": "d0e30db0",
    "doEffectiveAltruism((uint256,uint256,uint40,uint216),address)": "7c3466da",
    "emergencyShutdown()": "3403c2fc",
    "factory()": "c45a0155",
    "getApproved(uint256)": "081812fc",
    "getDailyBorrows()": "a56feea8",
    "getLoanId(uint256,uint256,uint256,uint216)": "364ba2af",
    "infoToRepayLoan((uint256,uint256,uint40,uint216))": "63bcb0af",
    "initialize(address,uint256,uint256,string,string,(uint256,uint256,uint256),address,address,address,uint96)": "edca92d8",
    "isApprovedForAll(address,address)": "e985e9c5",
    "liquidators(address)": "f90cdb36",
    "ltv()": "6fb49d73",
    "maxLoanLength()": "723d5126",
    "maxPrice()": "e38d6b5c",
    "maxVariableInterestPerEthPerSecond()": "9bf5044c",
    "minimumInterest()": "dd642f91",
    "name()": "06fdde03",
    "nftContract()": "d56d229d",
    "oracle()": "7dc0d1d0",
    "owner()": "8da5cb5b",
    "ownerOf(uint256)": "6352211e",
    "removeLiquidator(address)": "efb74400",
    "renounceOwnership()": "715018a6",
    "repay((uint256,uint256,uint40,uint216)[],address)": "d18c7015",
    "safeTransferFrom(address,address,uint256)": "42842e0e",
    "safeTransferFrom(address,address,uint256,bytes)": "b88d4fde",
    "setApprovalForAll(address,bool)": "a22cb465",
    "setMaxDailyBorrows(uint256)": "900b6e27",
    "setMaxPrice(uint256)": "f43952e3",
    "setOracle(address)": "7adbf973",
    "supportsInterface(bytes4)": "01ffc9a7",
    "symbol()": "95d89b41",
    "tokenURI(uint256)": "c87b56dd",
    "totalBorrowed()": "4c19386c",
    "transferFrom(address,address,uint256)": "23b872dd",
    "transferOwnership(address)": "f2fde38b",
    "withdraw(uint256)": "2e1a7d4d"
  },
  "id": 48
}