{
  "abi": [
    {
      "inputs": [
        {
          "internalType": "address[4]",
          "name": "_contributors",
          "type": "address[4]"
        }
      ],
      "stateMutability": "payable",
      "type": "constructor"
    },
    {
      "inputs": [
        {
          "internalType": "uint256",
          "name": "",
          "type": "uint256"
        }
      ],
      "name": "contributors",
      "outputs": [
        {
          "internalType": "address",
          "name": "",
          "type": "address"
        }
      ],
      "stateMutability": "view",
      "type": "function"
    },
    {
      "inputs": [],
      "name": "createTime",
      "outputs": [
        {
          "internalType": "uint256",
          "name": "",
          "type": "uint256"
        }
      ],
      "stateMutability": "view",
      "type": "function"
    },
    {
      "inputs": [],
      "name": "distribute",
      "outputs": [],
      "stateMutability": "nonpayable",
      "type": "function"
    }
  ],
  "bytecode": {
    "object": "0x6080604052604051610409380380610409833981016040819052610022916100c3565b61002f600082600461003a565b505042600455610155565b8260048101928215610082579160200282015b8281111561008257825182546001600160a01b0319166001600160a01b0390911617825560209092019160019091019061004d565b5061008e929150610092565b5090565b5b8082111561008e5760008155600101610093565b80516001600160a01b03811681146100be57600080fd5b919050565b6000608082840312156100d557600080fd5b82601f8301126100e457600080fd5b604051608081016001600160401b038111828210171561011457634e487b7160e01b600052604160045260246000fd5b60405280608084018581111561012957600080fd5b845b8181101561014a5761013c816100a7565b83526020928301920161012b565b509195945050505050565b6102a5806101646000396000f3fe608060405234801561001057600080fd5b50600436106100415760003560e01c80633cb5d1001461004657806361dcd7ab14610076578063e4fc6b6d1461008d575b600080fd5b61005961005436600461020e565b610097565b6040516001600160a01b0390911681526020015b60405180910390f35b61007f60045481565b60405190815260200161006d565b6100956100b7565b005b600081600481106100a757600080fd5b01546001600160a01b0316905081565b6004546100c79062093a80610227565b42116101115760405162461bcd60e51b815260206004820152601560248201527418d85b9b9bdd08191a5cdd1c9a589d5d19481e595d605a1b604482015260640160405180910390fd5b600061011e60044761024d565b600080546040519293506001600160a01b0316916108fc84150291849190818181858888f19350505050158015610159573d6000803e3d6000fd5b506001546040516001600160a01b03909116906108fc8315029083906000818181858888f19350505050158015610194573d6000803e3d6000fd5b506002546040516001600160a01b03909116906108fc8315029083906000818181858888f193505050501580156101cf573d6000803e3d6000fd5b506003546040516001600160a01b03909116906108fc8315029083906000818181858888f1935050505015801561020a573d6000803e3d6000fd5b5050565b60006020828403121561022057600080fd5b5035919050565b6000821982111561024857634e487b7160e01b600052601160045260246000fd5b500190565b60008261026a57634e487b7160e01b600052601260045260246000fd5b50049056fea26469706673582212200e2914f2524d4cfe2c9b1cef2b3a0ae5a7c85af274f6498e221ffe28cbc2ef7a64736f6c634300080f0033",
    "linkReferences": {}
  },
  "methodIdentifiers": {
    "contributors(uint256)": "3cb5d100",
    "createTime()": "61dcd7ab",
    "distribute()": "e4fc6b6d"
  },
  "id": 0
}