{
  "abi": [
    {
      "inputs": [
        {
          "internalType": "address[4]",
          "name": "_contributors",
          "type": "address[4]"
        }
      ],
      "stateMutability": "payable",
      "type": "constructor"
    },
    {
      "inputs": [],
      "name": "distribute",
      "outputs": [],
      "stateMutability": "nonpayable",
      "type": "function"
    }
  ],
  "bytecode": {
    "object": "0x61012060405260405161031038038061031083398101604081905261002391610077565b80516001600160a01b039081166080526020820151811660a0526040820151811660c0526060909101511660e0524261010052610109565b80516001600160a01b038116811461007257600080fd5b919050565b60006080828403121561008957600080fd5b82601f83011261009857600080fd5b604051608081016001600160401b03811182821017156100c857634e487b7160e01b600052604160045260246000fd5b6040528060808401858111156100dd57600080fd5b845b818110156100fe576100f08161005b565b8352602092830192016100df565b509195945050505050565b60805160a05160c05160e051610100516101c76101496000396000603f0152600061011a0152600060f90152600060d80152600060b701526101c76000f3fe608060405234801561001057600080fd5b506004361061002b5760003560e01c8063e4fc6b6d14610030575b600080fd5b61003861003a565b005b6100677f000000000000000000000000000000000000000000000000000000000000000062093a8061016b565b42116100b15760405162461bcd60e51b815260206004820152601560248201527418d85b9b9bdd08191a5cdd1c9a589d5d19481e595d605a1b604482015260640160405180910390fd5b4760021c7f00000000000000000000000000000000000000000000000000000000000000007f00000000000000000000000000000000000000000000000000000000000000007f00000000000000000000000000000000000000000000000000000000000000007f0000000000000000000000000000000000000000000000000000000000000000600080808088885af15060008060008088875af15060008060008088865af15060008060008088855af1505050505050565b6000821982111561018c57634e487b7160e01b600052601160045260246000fd5b50019056fea2646970667358221220fa24e8c1274d30c6f206b02479de9a9cefc9f8fe9e051afcd6b0d0e0263f4dee64736f6c634300080f0033",
    "linkReferences": {}
  },
  "methodIdentifiers": {
    "distribute()": "e4fc6b6d"
  },
  "id": 9
}