{
  "abi": [
    {
      "anonymous": false,
      "inputs": [
        {
          "indexed": false,
          "internalType": "address",
          "name": "who",
          "type": "address"
        },
        {
          "indexed": false,
          "internalType": "bytes4",
          "name": "fsig",
          "type": "bytes4"
        },
        {
          "indexed": false,
          "internalType": "bytes32",
          "name": "keysHash",
          "type": "bytes32"
        },
        {
          "indexed": false,
          "internalType": "uint256",
          "name": "slot",
          "type": "uint256"
        }
      ],
      "name": "SlotFound",
      "type": "event"
    },
    {
      "anonymous": false,
      "inputs": [
        {
          "indexed": false,
          "internalType": "address",
          "name": "who",
          "type": "address"
        },
        {
          "indexed": false,
          "internalType": "uint256",
          "name": "slot",
          "type": "uint256"
        }
      ],
      "name": "WARNING_UninitedSlot",
      "type": "event"
    },
    {
      "inputs": [
        {
          "internalType": "bytes",
          "name": "b",
          "type": "bytes"
        },
        {
          "internalType": "uint256",
          "name": "offset",
          "type": "uint256"
        }
      ],
      "name": "bytesToBytes32",
      "outputs": [
        {
          "internalType": "bytes32",
          "name": "",
          "type": "bytes32"
        }
      ],
      "stateMutability": "pure",
      "type": "function"
    }
  ],
  "bytecode": {
    "object": "0x6101a1610026600b82828239805160001a60731461001957fe5b30600052607381538281f3fe73000000000000000000000000000000000000000030146080604052600436106100355760003560e01c8063535849391461003a575b600080fd5b61004d6100483660046100c2565b610063565b60405161005a9190610162565b60405180910390f35b6000806000602085511161007857845161007b565b60205b905060005b818110156100b85780600802868287018151811061009a57fe5b01602001516001600160f81b031916901c9290921791600101610080565b5090949350505050565b600080604083850312156100d4578182fd5b823567ffffffffffffffff808211156100eb578384fd5b818501915085601f8301126100fe578384fd5b81358181111561010c578485fd5b6040516020601f8301601f191682018101848111838210171561012d578788fd5b6040528282528483018101891015610143578687fd5b8281860182840137918101820195909552939694909301359450505050565b9081526020019056fea26469706673582212200067af98d47ec32302baf76e4807612d4d6639ce97cb6466803836e73520334964736f6c634300060c0033",
    "linkReferences": {}
  },
  "methodIdentifiers": {
    "bytesToBytes32(bytes,uint256)": "53584939"
  },
  "id": 3
}