{
  "abi": [
    {
      "inputs": [],
      "stateMutability": "nonpayable",
      "type": "constructor"
    },
    {
      "anonymous": false,
      "inputs": [
        {
          "indexed": true,
          "internalType": "address",
          "name": "owner",
          "type": "address"
        },
        {
          "indexed": true,
          "internalType": "address",
          "name": "spender",
          "type": "address"
        },
        {
          "indexed": false,
          "internalType": "uint256",
          "name": "value",
          "type": "uint256"
        }
      ],
      "name": "Approval",
      "type": "event"
    },
    {
      "anonymous": false,
      "inputs": [
        {
          "indexed": true,
          "internalType": "bytes32",
          "name": "role",
          "type": "bytes32"
        },
        {
          "indexed": true,
          "internalType": "bytes32",
          "name": "previousAdminRole",
          "type": "bytes32"
        },
        {
          "indexed": true,
          "internalType": "bytes32",
          "name": "newAdminRole",
          "type": "bytes32"
        }
      ],
      "name": "RoleAdminChanged",
      "type": "event"
    },
    {
      "anonymous": false,
      "inputs": [
        {
          "indexed": true,
          "internalType": "bytes32",
          "name": "role",
          "type": "bytes32"
        },
        {
          "indexed": true,
          "internalType": "address",
          "name": "account",
          "type": "address"
        },
        {
          "indexed": true,
          "internalType": "address",
          "name": "sender",
          "type": "address"
        }
      ],
      "name": "RoleGranted",
      "type": "event"
    },
    {
      "anonymous": false,
      "inputs": [
        {
          "indexed": true,
          "internalType": "bytes32",
          "name": "role",
          "type": "bytes32"
        },
        {
          "indexed": true,
          "internalType": "address",
          "name": "account",
          "type": "address"
        },
        {
          "indexed": true,
          "internalType": "address",
          "name": "sender",
          "type": "address"
        }
      ],
      "name": "RoleRevoked",
      "type": "event"
    },
    {
      "anonymous": false,
      "inputs": [
        {
          "indexed": true,
          "internalType": "address",
          "name": "from",
          "type": "address"
        },
        {
          "indexed": true,
          "internalType": "address",
          "name": "to",
          "type": "address"
        },
        {
          "indexed": false,
          "internalType": "uint256",
          "name": "value",
          "type": "uint256"
        }
      ],
      "name": "Transfer",
      "type": "event"
    },
    {
      "stateMutability": "nonpayable",
      "type": "fallback"
    },
    {
      "inputs": [],
      "name": "DEFAULT_ADMIN_ROLE",
      "outputs": [
        {
          "internalType": "bytes32",
          "name": "",
          "type": "bytes32"
        }
      ],
      "stateMutability": "view",
      "type": "function"
    },
    {
      "inputs": [],
      "name": "DOMAIN_SEPARATOR",
      "outputs": [
        {
          "internalType": "bytes32",
          "name": "",
          "type": "bytes32"
        }
      ],
      "stateMutability": "view",
      "type": "function"
    },
    {
      "inputs": [
        {
          "internalType": "address",
          "name": "owner",
          "type": "address"
        },
        {
          "internalType": "address",
          "name": "spender",
          "type": "address"
        }
      ],
      "name": "allowance",
      "outputs": [
        {
          "internalType": "uint256",
          "name": "",
          "type": "uint256"
        }
      ],
      "stateMutability": "view",
      "type": "function"
    },
    {
      "inputs": [
        {
          "internalType": "address",
          "name": "spender",
          "type": "address"
        },
        {
          "internalType": "uint256",
          "name": "amount",
          "type": "uint256"
        }
      ],
      "name": "approve",
      "outputs": [
        {
          "internalType": "bool",
          "name": "",
          "type": "bool"
        }
      ],
      "stateMutability": "nonpayable",
      "type": "function"
    },
    {
      "inputs": [
        {
          "internalType": "address",
          "name": "account",
          "type": "address"
        }
      ],
      "name": "balanceOf",
      "outputs": [
        {
          "internalType": "uint256",
          "name": "",
          "type": "uint256"
        }
      ],
      "stateMutability": "view",
      "type": "function"
    },
    {
      "inputs": [],
      "name": "decimals",
      "outputs": [
        {
          "internalType": "uint8",
          "name": "",
          "type": "uint8"
        }
      ],
      "stateMutability": "view",
      "type": "function"
    },
    {
      "inputs": [
        {
          "internalType": "address",
          "name": "spender",
          "type": "address"
        },
        {
          "internalType": "uint256",
          "name": "subtractedValue",
          "type": "uint256"
        }
      ],
      "name": "decreaseAllowance",
      "outputs": [
        {
          "internalType": "bool",
          "name": "",
          "type": "bool"
        }
      ],
      "stateMutability": "nonpayable",
      "type": "function"
    },
    {
      "inputs": [
        {
          "internalType": "bytes32",
          "name": "role",
          "type": "bytes32"
        }
      ],
      "name": "getRoleAdmin",
      "outputs": [
        {
          "internalType": "bytes32",
          "name": "",
          "type": "bytes32"
        }
      ],
      "stateMutability": "view",
      "type": "function"
    },
    {
      "inputs": [
        {
          "internalType": "bytes32",
          "name": "role",
          "type": "bytes32"
        },
        {
          "internalType": "address",
          "name": "account",
          "type": "address"
        }
      ],
      "name": "grantRole",
      "outputs": [],
      "stateMutability": "nonpayable",
      "type": "function"
    },
    {
      "inputs": [
        {
          "internalType": "bytes32",
          "name": "role",
          "type": "bytes32"
        },
        {
          "internalType": "address",
          "name": "account",
          "type": "address"
        }
      ],
      "name": "hasRole",
      "outputs": [
        {
          "internalType": "bool",
          "name": "",
          "type": "bool"
        }
      ],
      "stateMutability": "view",
      "type": "function"
    },
    {
      "inputs": [
        {
          "internalType": "address",
          "name": "spender",
          "type": "address"
        },
        {
          "internalType": "uint256",
          "name": "addedValue",
          "type": "uint256"
        }
      ],
      "name": "increaseAllowance",
      "outputs": [
        {
          "internalType": "bool",
          "name": "",
          "type": "bool"
        }
      ],
      "stateMutability": "nonpayable",
      "type": "function"
    },
    {
      "inputs": [],
      "name": "name",
      "outputs": [
        {
          "internalType": "string",
          "name": "",
          "type": "string"
        }
      ],
      "stateMutability": "view",
      "type": "function"
    },
    {
      "inputs": [
        {
          "internalType": "address",
          "name": "owner",
          "type": "address"
        }
      ],
      "name": "nonces",
      "outputs": [
        {
          "internalType": "uint256",
          "name": "",
          "type": "uint256"
        }
      ],
      "stateMutability": "view",
      "type": "function"
    },
    {
      "inputs": [
        {
          "internalType": "address",
          "name": "owner",
          "type": "address"
        },
        {
          "internalType": "address",
          "name": "spender",
          "type": "address"
        },
        {
          "internalType": "uint256",
          "name": "value",
          "type": "uint256"
        },
        {
          "internalType": "uint256",
          "name": "deadline",
          "type": "uint256"
        },
        {
          "internalType": "uint8",
          "name": "v",
          "type": "uint8"
        },
        {
          "internalType": "bytes32",
          "name": "r",
          "type": "bytes32"
        },
        {
          "internalType": "bytes32",
          "name": "s",
          "type": "bytes32"
        }
      ],
      "name": "permit",
      "outputs": [],
      "stateMutability": "nonpayable",
      "type": "function"
    },
    {
      "inputs": [
        {
          "internalType": "bytes32",
          "name": "role",
          "type": "bytes32"
        },
        {
          "internalType": "address",
          "name": "account",
          "type": "address"
        }
      ],
      "name": "renounceRole",
      "outputs": [],
      "stateMutability": "nonpayable",
      "type": "function"
    },
    {
      "inputs": [
        {
          "internalType": "bytes32",
          "name": "role",
          "type": "bytes32"
        },
        {
          "internalType": "address",
          "name": "account",
          "type": "address"
        }
      ],
      "name": "revokeRole",
      "outputs": [],
      "stateMutability": "nonpayable",
      "type": "function"
    },
    {
      "inputs": [
        {
          "internalType": "bytes4",
          "name": "interfaceId",
          "type": "bytes4"
        }
      ],
      "name": "supportsInterface",
      "outputs": [
        {
          "internalType": "bool",
          "name": "",
          "type": "bool"
        }
      ],
      "stateMutability": "view",
      "type": "function"
    },
    {
      "inputs": [],
      "name": "symbol",
      "outputs": [
        {
          "internalType": "string",
          "name": "",
          "type": "string"
        }
      ],
      "stateMutability": "view",
      "type": "function"
    },
    {
      "inputs": [],
      "name": "totalSupply",
      "outputs": [
        {
          "internalType": "uint256",
          "name": "",
          "type": "uint256"
        }
      ],
      "stateMutability": "view",
      "type": "function"
    },
    {
      "inputs": [
        {
          "internalType": "address",
          "name": "to",
          "type": "address"
        },
        {
          "internalType": "uint256",
          "name": "amount",
          "type": "uint256"
        }
      ],
      "name": "transfer",
      "outputs": [
        {
          "internalType": "bool",
          "name": "",
          "type": "bool"
        }
      ],
      "stateMutability": "nonpayable",
      "type": "function"
    },
    {
      "inputs": [
        {
          "internalType": "address",
          "name": "from",
          "type": "address"
        },
        {
          "internalType": "address",
          "name": "to",
          "type": "address"
        },
        {
          "internalType": "uint256",
          "name": "amount",
          "type": "uint256"
        }
      ],
      "name": "transferFrom",
      "outputs": [
        {
          "internalType": "bool",
          "name": "",
          "type": "bool"
        }
      ],
      "stateMutability": "nonpayable",
      "type": "function"
    }
  ],
  "bytecode": {
    "object": "0x6101406040523480156200001257600080fd5b50604051806040016040528060058152602001642a37b5b2b760d91b81525080604051806040016040528060018152602001603160f81b815250604051806040016040528060058152602001642a37b5b2b760d91b815250604051806040016040528060038152602001622a25a760e91b815250816003908162000097919062000307565b506004620000a6828262000307565b50620000b8915060009050336200014e565b815160209283012081519183019190912060e08290526101008190524660a0818152604080517f8b73c3c69bb8fe3d512ecc4cf759cc79239f7b179b0ffacaa9a75d522b39400f818801819052818301969096526060810194909452608080850193909352308483018190528151808603909301835260c094850190915281519190950120905291909152610120525062000452565b6200015a8282620001db565b620001d75760008281526005602090815260408083206001600160a01b03851684529091529020805460ff191660011790556200019662000208565b6001600160a01b0316816001600160a01b0316837f2f8788117e7eff1d82e926ec794901d17c78024a50270940304540a733656f0d60405160405180910390a45b5050565b60008281526005602090815260408083206001600160a01b038516845290915290205460ff165b92915050565b6000303b81036200022d57620002286200025e60201b620008791760201c565b905090565b6000366200023d601482620003d3565b6200024b92369290620003f5565b620002569162000421565b60601c905090565b3390565b634e487b7160e01b600052604160045260246000fd5b600181811c908216806200028d57607f821691505b602082108103620002ae57634e487b7160e01b600052602260045260246000fd5b50919050565b601f8211156200030257600081815260208120601f850160051c81016020861015620002dd5750805b601f850160051c820191505b81811015620002fe57828155600101620002e9565b5050505b505050565b81516001600160401b0381111562000323576200032362000262565b6200033b8162000334845462000278565b84620002b4565b602080601f8311600181146200037357600084156200035a5750858301515b600019600386901b1c1916600185901b178555620002fe565b600085815260208120601f198616915b82811015620003a45788860151825594840194600190910190840162000383565b5085821015620003c35787850151600019600388901b60f8161c191681555b5050505050600190811b01905550565b818103818111156200020257634e487b7160e01b600052601160045260246000fd5b600080858511156200040657600080fd5b838611156200041457600080fd5b5050820193919092039150565b6001600160601b031981358181169160148510156200044a5780818660140360031b1b83161692505b505092915050565b60805160a05160c05160e05161010051610120516116f4620004a26000396000610d1e01526000610d6d01526000610d4801526000610ca101526000610ccb01526000610cf501526116f46000f3fe608060405234801561001057600080fd5b50600436106101375760003560e01c806339509351116100b8578063a217fddf1161007c578063a217fddf1461035c578063a457c2d714610364578063a9059cbb14610377578063d505accf1461038a578063d547741f1461039d578063dd62ed3e146103b057610137565b806339509351146102f257806370a08231146103055780637ecebe001461032e57806391d148541461034157806395d89b411461035457610137565b8063248a9ca3116100ff578063248a9ca3146102925780632f2ff15d146102b5578063313ce567146102c85780633644e515146102d757806336568abe146102df57610137565b806301ffc9a71461021d57806306fdde0314610245578063095ea7b31461025a57806318160ddd1461026d57806323b872dd1461027f575b6101617f600e5f1c60beb469a3fa6dd3814a4ae211cc6259a6d033bae218a742f2af01d3336103c3565b1561021b57600080336001600160a01b03166000366040516101849291906112fa565b600060405180830381855af49150503d80600081146101bf576040519150601f19603f3d011682016040523d82523d6000602084013e6101c4565b606091505b5091509150816102135760405162461bcd60e51b8152602060048201526015602482015274135251d490551253d38810d0531308119052531151605a1b60448201526064015b60405180910390fd5b805160208201f35b005b61023061022b36600461130a565b6103f0565b60405190151581526020015b60405180910390f35b61024d610425565b60405161023c9190611358565b6102306102683660046113a7565b6104b7565b6002545b60405190815260200161023c565b61023061028d3660046113d1565b6104d9565b6102716102a036600461140d565b60009081526005602052604090206001015490565b61021b6102c3366004611426565b610507565b6040516012815260200161023c565b610271610531565b61021b6102ed366004611426565b610540565b6102306103003660046113a7565b6105ce565b610271610313366004611452565b6001600160a01b031660009081526020819052604090205490565b61027161033c366004611452565b6105fa565b61023061034f366004611426565b6103c3565b61024d610618565b610271600081565b6102306103723660046113a7565b610627565b6102306103853660046113a7565b6106ad565b61021b61039836600461146d565b6106c5565b61021b6103ab366004611426565b610829565b6102716103be3660046114e0565b61084e565b60008281526005602090815260408083206001600160a01b038516845290915290205460ff165b92915050565b60006001600160e01b03198216637965db0b60e01b14806103ea57506301ffc9a760e01b6001600160e01b03198316146103ea565b6060600380546104349061150a565b80601f01602080910402602001604051908101604052809291908181526020018280546104609061150a565b80156104ad5780601f10610482576101008083540402835291602001916104ad565b820191906000526020600020905b81548152906001019060200180831161049057829003601f168201915b5050505050905090565b6000806104c261087d565b90506104cf8185856108b7565b5060019392505050565b6000806104e461087d565b90506104f18582856109db565b6104fc858585610a55565b506001949350505050565b60008281526005602052604090206001015461052281610bf9565b61052c8383610c0d565b505050565b600061053b610c94565b905090565b61054861087d565b6001600160a01b0316816001600160a01b0316146105c05760405162461bcd60e51b815260206004820152602f60248201527f416363657373436f6e74726f6c3a2063616e206f6e6c792072656e6f756e636560448201526e103937b632b9903337b91039b2b63360891b606482015260840161020a565b6105ca8282610dbb565b5050565b6000806105d961087d565b90506104cf8185856105eb858961084e565b6105f59190611554565b6108b7565b6001600160a01b0381166000908152600660205260408120546103ea565b6060600480546104349061150a565b60008061063261087d565b90506000610640828661084e565b9050838110156106a05760405162461bcd60e51b815260206004820152602560248201527f45524332303a2064656372656173656420616c6c6f77616e63652062656c6f77604482015264207a65726f60d81b606482015260840161020a565b6104fc82868684036108b7565b6000806106b861087d565b90506104cf818585610a55565b834211156107155760405162461bcd60e51b815260206004820152601d60248201527f45524332305065726d69743a206578706972656420646561646c696e65000000604482015260640161020a565b60007f6e71edae12b1b97f4d1f60370fef10105fa2faae0126114a169c64845d6126c98888886107448c610e40565b6040805160208101969096526001600160a01b0394851690860152929091166060840152608083015260a082015260c0810186905260e001604051602081830303815290604052805190602001209050600061079f82610e68565b905060006107af82878787610eb6565b9050896001600160a01b0316816001600160a01b0316146108125760405162461bcd60e51b815260206004820152601e60248201527f45524332305065726d69743a20696e76616c6964207369676e61747572650000604482015260640161020a565b61081d8a8a8a6108b7565b50505050505050505050565b60008281526005602052604090206001015461084481610bf9565b61052c8383610dbb565b6001600160a01b03918216600090815260016020908152604080832093909416825291909152205490565b3390565b6000303b810361088c57503390565b60003661089a601482611567565b6108a69236929061157a565b6108af916115a4565b60601c905090565b6001600160a01b0383166109195760405162461bcd60e51b8152602060048201526024808201527f45524332303a20617070726f76652066726f6d20746865207a65726f206164646044820152637265737360e01b606482015260840161020a565b6001600160a01b03821661097a5760405162461bcd60e51b815260206004820152602260248201527f45524332303a20617070726f766520746f20746865207a65726f206164647265604482015261737360f01b606482015260840161020a565b6001600160a01b0383811660008181526001602090815260408083209487168084529482529182902085905590518481527f8c5be1e5ebec7d5bd14f71427d1e84f3dd0314c0f7b2291e5b200ac8c7c3b925910160405180910390a3505050565b60006109e7848461084e565b90506000198114610a4f5781811015610a425760405162461bcd60e51b815260206004820152601d60248201527f45524332303a20696e73756666696369656e7420616c6c6f77616e6365000000604482015260640161020a565b610a4f84848484036108b7565b50505050565b6001600160a01b038316610ab95760405162461bcd60e51b815260206004820152602560248201527f45524332303a207472616e736665722066726f6d20746865207a65726f206164604482015264647265737360d81b606482015260840161020a565b6001600160a01b038216610b1b5760405162461bcd60e51b815260206004820152602360248201527f45524332303a207472616e7366657220746f20746865207a65726f206164647260448201526265737360e81b606482015260840161020a565b6001600160a01b03831660009081526020819052604090205481811015610b935760405162461bcd60e51b815260206004820152602660248201527f45524332303a207472616e7366657220616d6f756e7420657863656564732062604482015265616c616e636560d01b606482015260840161020a565b6001600160a01b03848116600081815260208181526040808320878703905593871680835291849020805487019055925185815290927fddf252ad1be2c89b69c2b068fc378daa952ba7f163c4a11628f55a4df523b3ef910160405180910390a3610a4f565b610c0a81610c0561087d565b610ede565b50565b610c1782826103c3565b6105ca5760008281526005602090815260408083206001600160a01b03851684529091529020805460ff19166001179055610c5061087d565b6001600160a01b0316816001600160a01b0316837f2f8788117e7eff1d82e926ec794901d17c78024a50270940304540a733656f0d60405160405180910390a45050565b6000306001600160a01b037f000000000000000000000000000000000000000000000000000000000000000016148015610ced57507f000000000000000000000000000000000000000000000000000000000000000046145b15610d1757507f000000000000000000000000000000000000000000000000000000000000000090565b50604080517f00000000000000000000000000000000000000000000000000000000000000006020808301919091527f0000000000000000000000000000000000000000000000000000000000000000828401527f000000000000000000000000000000000000000000000000000000000000000060608301524660808301523060a0808401919091528351808403909101815260c0909201909252805191012090565b610dc582826103c3565b156105ca5760008281526005602090815260408083206001600160a01b03851684529091529020805460ff19169055610dfc61087d565b6001600160a01b0316816001600160a01b0316837ff6391f5c32d9c69d2a47ea670b442974b53935d1edc7fd64eb21e047a839171b60405160405180910390a45050565b6001600160a01b03811660009081526006602052604090208054600181018255905b50919050565b60006103ea610e75610c94565b8360405161190160f01b6020820152602281018390526042810182905260009060620160405160208183030381529060405280519060200120905092915050565b6000806000610ec787878787610f37565b91509150610ed481610ffb565b5095945050505050565b610ee882826103c3565b6105ca57610ef581611145565b610f00836020611157565b604051602001610f119291906115d9565b60408051601f198184030181529082905262461bcd60e51b825261020a91600401611358565b6000807f7fffffffffffffffffffffffffffffff5d576e7357a4501ddfe92f46681b20a0831115610f6e5750600090506003610ff2565b6040805160008082526020820180845289905260ff881692820192909252606081018690526080810185905260019060a0016020604051602081039080840390855afa158015610fc2573d6000803e3d6000fd5b5050604051601f1901519150506001600160a01b038116610feb57600060019250925050610ff2565b9150600090505b94509492505050565b600081600481111561100f5761100f61164e565b036110175750565b600181600481111561102b5761102b61164e565b036110785760405162461bcd60e51b815260206004820152601860248201527f45434453413a20696e76616c6964207369676e61747572650000000000000000604482015260640161020a565b600281600481111561108c5761108c61164e565b036110d95760405162461bcd60e51b815260206004820152601f60248201527f45434453413a20696e76616c6964207369676e6174757265206c656e67746800604482015260640161020a565b60038160048111156110ed576110ed61164e565b03610c0a5760405162461bcd60e51b815260206004820152602260248201527f45434453413a20696e76616c6964207369676e6174757265202773272076616c604482015261756560f01b606482015260840161020a565b60606103ea6001600160a01b03831660145b60606000611166836002611664565b611171906002611554565b67ffffffffffffffff8111156111895761118961167b565b6040519080825280601f01601f1916602001820160405280156111b3576020820181803683370190505b509050600360fc1b816000815181106111ce576111ce611691565b60200101906001600160f81b031916908160001a905350600f60fb1b816001815181106111fd576111fd611691565b60200101906001600160f81b031916908160001a9053506000611221846002611664565b61122c906001611554565b90505b60018111156112a4576f181899199a1a9b1b9c1cb0b131b232b360811b85600f166010811061126057611260611691565b1a60f81b82828151811061127657611276611691565b60200101906001600160f81b031916908160001a90535060049490941c9361129d816116a7565b905061122f565b5083156112f35760405162461bcd60e51b815260206004820181905260248201527f537472696e67733a20686578206c656e67746820696e73756666696369656e74604482015260640161020a565b9392505050565b8183823760009101908152919050565b60006020828403121561131c57600080fd5b81356001600160e01b0319811681146112f357600080fd5b60005b8381101561134f578181015183820152602001611337565b50506000910152565b6020815260008251806020840152611377816040850160208701611334565b601f01601f19169190910160400192915050565b80356001600160a01b03811681146113a257600080fd5b919050565b600080604083850312156113ba57600080fd5b6113c38361138b565b946020939093013593505050565b6000806000606084860312156113e657600080fd5b6113ef8461138b565b92506113fd6020850161138b565b9150604084013590509250925092565b60006020828403121561141f57600080fd5b5035919050565b6000806040838503121561143957600080fd5b823591506114496020840161138b565b90509250929050565b60006020828403121561146457600080fd5b6112f38261138b565b600080600080600080600060e0888a03121561148857600080fd5b6114918861138b565b965061149f6020890161138b565b95506040880135945060608801359350608088013560ff811681146114c357600080fd5b9699959850939692959460a0840135945060c09093013592915050565b600080604083850312156114f357600080fd5b6114fc8361138b565b91506114496020840161138b565b600181811c9082168061151e57607f821691505b602082108103610e6257634e487b7160e01b600052602260045260246000fd5b634e487b7160e01b600052601160045260246000fd5b808201808211156103ea576103ea61153e565b818103818111156103ea576103ea61153e565b6000808585111561158a57600080fd5b8386111561159757600080fd5b5050820193919092039150565b6bffffffffffffffffffffffff1981358181169160148510156115d15780818660140360031b1b83161692505b505092915050565b7f416363657373436f6e74726f6c3a206163636f756e7420000000000000000000815260008351611611816017850160208801611334565b7001034b99036b4b9b9b4b733903937b6329607d1b6017918401918201528351611642816028840160208801611334565b01602801949350505050565b634e487b7160e01b600052602160045260246000fd5b80820281158282048414176103ea576103ea61153e565b634e487b7160e01b600052604160045260246000fd5b634e487b7160e01b600052603260045260246000fd5b6000816116b6576116b661153e565b50600019019056fea2646970667358221220584947b29a4dd30afec223949ce95091d67b445f88a6e5d62ac4590fc2fa225b64736f6c63430008110033",
    "linkReferences": {}
  },
  "methodIdentifiers": {
    "DEFAULT_ADMIN_ROLE()": "a217fddf",
    "DOMAIN_SEPARATOR()": "3644e515",
    "allowance(address,address)": "dd62ed3e",
    "approve(address,uint256)": "095ea7b3",
    "balanceOf(address)": "70a08231",
    "decimals()": "313ce567",
    "decreaseAllowance(address,uint256)": "a457c2d7",
    "getRoleAdmin(bytes32)": "248a9ca3",
    "grantRole(bytes32,address)": "2f2ff15d",
    "hasRole(bytes32,address)": "91d14854",
    "increaseAllowance(address,uint256)": "39509351",
    "name()": "06fdde03",
    "nonces(address)": "7ecebe00",
    "permit(address,address,uint256,uint256,uint8,bytes32,bytes32)": "d505accf",
    "renounceRole(bytes32,address)": "36568abe",
    "revokeRole(bytes32,address)": "d547741f",
    "supportsInterface(bytes4)": "01ffc9a7",
    "symbol()": "95d89b41",
    "totalSupply()": "18160ddd",
    "transfer(address,uint256)": "a9059cbb",
    "transferFrom(address,address,uint256)": "23b872dd"
  },
  "id": 42
}