{
  "abi": [
    {
      "inputs": [],
      "stateMutability": "nonpayable",
      "type": "constructor"
    },
    {
      "anonymous": false,
      "inputs": [
        {
          "indexed": true,
          "internalType": "address",
          "name": "owner",
          "type": "address"
        },
        {
          "indexed": true,
          "internalType": "address",
          "name": "spender",
          "type": "address"
        },
        {
          "indexed": false,
          "internalType": "uint256",
          "name": "value",
          "type": "uint256"
        }
      ],
      "name": "Approval",
      "type": "event"
    },
    {
      "anonymous": false,
      "inputs": [
        {
          "indexed": true,
          "internalType": "bytes32",
          "name": "role",
          "type": "bytes32"
        },
        {
          "indexed": true,
          "internalType": "bytes32",
          "name": "previousAdminRole",
          "type": "bytes32"
        },
        {
          "indexed": true,
          "internalType": "bytes32",
          "name": "newAdminRole",
          "type": "bytes32"
        }
      ],
      "name": "RoleAdminChanged",
      "type": "event"
    },
    {
      "anonymous": false,
      "inputs": [
        {
          "indexed": true,
          "internalType": "bytes32",
          "name": "role",
          "type": "bytes32"
        },
        {
          "indexed": true,
          "internalType": "address",
          "name": "account",
          "type": "address"
        },
        {
          "indexed": true,
          "internalType": "address",
          "name": "sender",
          "type": "address"
        }
      ],
      "name": "RoleGranted",
      "type": "event"
    },
    {
      "anonymous": false,
      "inputs": [
        {
          "indexed": true,
          "internalType": "bytes32",
          "name": "role",
          "type": "bytes32"
        },
        {
          "indexed": true,
          "internalType": "address",
          "name": "account",
          "type": "address"
        },
        {
          "indexed": true,
          "internalType": "address",
          "name": "sender",
          "type": "address"
        }
      ],
      "name": "RoleRevoked",
      "type": "event"
    },
    {
      "anonymous": false,
      "inputs": [
        {
          "indexed": true,
          "internalType": "address",
          "name": "from",
          "type": "address"
        },
        {
          "indexed": true,
          "internalType": "address",
          "name": "to",
          "type": "address"
        },
        {
          "indexed": false,
          "internalType": "uint256",
          "name": "value",
          "type": "uint256"
        }
      ],
      "name": "Transfer",
      "type": "event"
    },
    {
      "stateMutability": "nonpayable",
      "type": "fallback"
    },
    {
      "inputs": [],
      "name": "DEFAULT_ADMIN_ROLE",
      "outputs": [
        {
          "internalType": "bytes32",
          "name": "",
          "type": "bytes32"
        }
      ],
      "stateMutability": "view",
      "type": "function"
    },
    {
      "inputs": [
        {
          "internalType": "address",
          "name": "owner",
          "type": "address"
        },
        {
          "internalType": "address",
          "name": "spender",
          "type": "address"
        }
      ],
      "name": "allowance",
      "outputs": [
        {
          "internalType": "uint256",
          "name": "",
          "type": "uint256"
        }
      ],
      "stateMutability": "view",
      "type": "function"
    },
    {
      "inputs": [
        {
          "internalType": "address",
          "name": "spender",
          "type": "address"
        },
        {
          "internalType": "uint256",
          "name": "amount",
          "type": "uint256"
        }
      ],
      "name": "approve",
      "outputs": [
        {
          "internalType": "bool",
          "name": "",
          "type": "bool"
        }
      ],
      "stateMutability": "nonpayable",
      "type": "function"
    },
    {
      "inputs": [
        {
          "internalType": "address",
          "name": "account",
          "type": "address"
        }
      ],
      "name": "balanceOf",
      "outputs": [
        {
          "internalType": "uint256",
          "name": "",
          "type": "uint256"
        }
      ],
      "stateMutability": "view",
      "type": "function"
    },
    {
      "inputs": [],
      "name": "decimals",
      "outputs": [
        {
          "internalType": "uint8",
          "name": "",
          "type": "uint8"
        }
      ],
      "stateMutability": "view",
      "type": "function"
    },
    {
      "inputs": [
        {
          "internalType": "address",
          "name": "spender",
          "type": "address"
        },
        {
          "internalType": "uint256",
          "name": "subtractedValue",
          "type": "uint256"
        }
      ],
      "name": "decreaseAllowance",
      "outputs": [
        {
          "internalType": "bool",
          "name": "",
          "type": "bool"
        }
      ],
      "stateMutability": "nonpayable",
      "type": "function"
    },
    {
      "inputs": [
        {
          "internalType": "bytes32",
          "name": "role",
          "type": "bytes32"
        }
      ],
      "name": "getRoleAdmin",
      "outputs": [
        {
          "internalType": "bytes32",
          "name": "",
          "type": "bytes32"
        }
      ],
      "stateMutability": "view",
      "type": "function"
    },
    {
      "inputs": [
        {
          "internalType": "bytes32",
          "name": "role",
          "type": "bytes32"
        },
        {
          "internalType": "address",
          "name": "account",
          "type": "address"
        }
      ],
      "name": "grantRole",
      "outputs": [],
      "stateMutability": "nonpayable",
      "type": "function"
    },
    {
      "inputs": [
        {
          "internalType": "bytes32",
          "name": "role",
          "type": "bytes32"
        },
        {
          "internalType": "address",
          "name": "account",
          "type": "address"
        }
      ],
      "name": "hasRole",
      "outputs": [
        {
          "internalType": "bool",
          "name": "",
          "type": "bool"
        }
      ],
      "stateMutability": "view",
      "type": "function"
    },
    {
      "inputs": [
        {
          "internalType": "address",
          "name": "spender",
          "type": "address"
        },
        {
          "internalType": "uint256",
          "name": "addedValue",
          "type": "uint256"
        }
      ],
      "name": "increaseAllowance",
      "outputs": [
        {
          "internalType": "bool",
          "name": "",
          "type": "bool"
        }
      ],
      "stateMutability": "nonpayable",
      "type": "function"
    },
    {
      "inputs": [],
      "name": "name",
      "outputs": [
        {
          "internalType": "string",
          "name": "",
          "type": "string"
        }
      ],
      "stateMutability": "view",
      "type": "function"
    },
    {
      "inputs": [
        {
          "internalType": "bytes32",
          "name": "role",
          "type": "bytes32"
        },
        {
          "internalType": "address",
          "name": "account",
          "type": "address"
        }
      ],
      "name": "renounceRole",
      "outputs": [],
      "stateMutability": "nonpayable",
      "type": "function"
    },
    {
      "inputs": [
        {
          "internalType": "bytes32",
          "name": "role",
          "type": "bytes32"
        },
        {
          "internalType": "address",
          "name": "account",
          "type": "address"
        }
      ],
      "name": "revokeRole",
      "outputs": [],
      "stateMutability": "nonpayable",
      "type": "function"
    },
    {
      "inputs": [
        {
          "internalType": "bytes4",
          "name": "interfaceId",
          "type": "bytes4"
        }
      ],
      "name": "supportsInterface",
      "outputs": [
        {
          "internalType": "bool",
          "name": "",
          "type": "bool"
        }
      ],
      "stateMutability": "view",
      "type": "function"
    },
    {
      "inputs": [],
      "name": "symbol",
      "outputs": [
        {
          "internalType": "string",
          "name": "",
          "type": "string"
        }
      ],
      "stateMutability": "view",
      "type": "function"
    },
    {
      "inputs": [],
      "name": "totalSupply",
      "outputs": [
        {
          "internalType": "uint256",
          "name": "",
          "type": "uint256"
        }
      ],
      "stateMutability": "view",
      "type": "function"
    },
    {
      "inputs": [
        {
          "internalType": "address",
          "name": "to",
          "type": "address"
        },
        {
          "internalType": "uint256",
          "name": "amount",
          "type": "uint256"
        }
      ],
      "name": "transfer",
      "outputs": [
        {
          "internalType": "bool",
          "name": "",
          "type": "bool"
        }
      ],
      "stateMutability": "nonpayable",
      "type": "function"
    },
    {
      "inputs": [
        {
          "internalType": "address",
          "name": "from",
          "type": "address"
        },
        {
          "internalType": "address",
          "name": "to",
          "type": "address"
        },
        {
          "internalType": "uint256",
          "name": "amount",
          "type": "uint256"
        }
      ],
      "name": "transferFrom",
      "outputs": [
        {
          "internalType": "bool",
          "name": "",
          "type": "bool"
        }
      ],
      "stateMutability": "nonpayable",
      "type": "function"
    }
  ],
  "bytecode": {
    "object": "0x60806040523480156200001157600080fd5b50604051806040016040528060058152602001642a37b5b2b760d91b815250604051806040016040528060038152602001622a25a760e91b81525081600390816200005d9190620001ce565b5060046200006c8282620001ce565b506200007e9150600090503362000084565b6200029a565b60008281526005602090815260408083206001600160a01b038516845290915290205460ff16620001255760008281526005602090815260408083206001600160a01b03851684529091529020805460ff19166001179055620000e43390565b6001600160a01b0316816001600160a01b0316837f2f8788117e7eff1d82e926ec794901d17c78024a50270940304540a733656f0d60405160405180910390a45b5050565b634e487b7160e01b600052604160045260246000fd5b600181811c908216806200015457607f821691505b6020821081036200017557634e487b7160e01b600052602260045260246000fd5b50919050565b601f821115620001c957600081815260208120601f850160051c81016020861015620001a45750805b601f850160051c820191505b81811015620001c557828155600101620001b0565b5050505b505050565b81516001600160401b03811115620001ea57620001ea62000129565b6200020281620001fb84546200013f565b846200017b565b602080601f8311600181146200023a5760008415620002215750858301515b600019600386901b1c1916600185901b178555620001c5565b600085815260208120601f198616915b828110156200026b578886015182559484019460019091019084016200024a565b50858210156200028a5787850151600019600388901b60f8161c191681555b5050505050600190811b01905550565b610fa580620002aa6000396000f3fe608060405234801561001057600080fd5b50600436106101165760003560e01c806339509351116100a2578063a217fddf11610071578063a217fddf14610320578063a457c2d714610328578063a9059cbb1461033b578063d547741f1461034e578063dd62ed3e1461036157610116565b806339509351146102c957806370a08231146102dc57806391d148541461030557806395d89b411461031857610116565b806323b872dd116100e957806323b872dd1461025e578063248a9ca3146102715780632f2ff15d14610294578063313ce567146102a757806336568abe146102b657610116565b806301ffc9a7146101fc57806306fdde0314610224578063095ea7b31461023957806318160ddd1461024c575b6101407f600e5f1c60beb469a3fa6dd3814a4ae211cc6259a6d033bae218a742f2af01d333610374565b156101fa57600080336001600160a01b0316600036604051610163929190610ca0565b600060405180830381855af49150503d806000811461019e576040519150601f19603f3d011682016040523d82523d6000602084013e6101a3565b606091505b5091509150816101f25760405162461bcd60e51b8152602060048201526015602482015274135251d490551253d38810d0531308119052531151605a1b60448201526064015b60405180910390fd5b805160208201f35b005b61020f61020a366004610cb0565b6103a1565b60405190151581526020015b60405180910390f35b61022c6103d6565b60405161021b9190610cfe565b61020f610247366004610d4d565b610468565b6002545b60405190815260200161021b565b61020f61026c366004610d77565b610480565b61025061027f366004610db3565b60009081526005602052604090206001015490565b6101fa6102a2366004610dcc565b6104a4565b6040516012815260200161021b565b6101fa6102c4366004610dcc565b6104ce565b61020f6102d7366004610d4d565b61054c565b6102506102ea366004610df8565b6001600160a01b031660009081526020819052604090205490565b61020f610313366004610dcc565b610374565b61022c61056e565b610250600081565b61020f610336366004610d4d565b61057d565b61020f610349366004610d4d565b6105f8565b6101fa61035c366004610dcc565b610606565b61025061036f366004610e13565b61062b565b60008281526005602090815260408083206001600160a01b038516845290915290205460ff165b92915050565b60006001600160e01b03198216637965db0b60e01b148061039b57506301ffc9a760e01b6001600160e01b031983161461039b565b6060600380546103e590610e3d565b80601f016020809104026020016040519081016040528092919081815260200182805461041190610e3d565b801561045e5780601f106104335761010080835404028352916020019161045e565b820191906000526020600020905b81548152906001019060200180831161044157829003601f168201915b5050505050905090565b600033610476818585610656565b5060019392505050565b60003361048e85828561077a565b6104998585856107f4565b506001949350505050565b6000828152600560205260409020600101546104bf81610998565b6104c983836109a5565b505050565b6001600160a01b038116331461053e5760405162461bcd60e51b815260206004820152602f60248201527f416363657373436f6e74726f6c3a2063616e206f6e6c792072656e6f756e636560448201526e103937b632b9903337b91039b2b63360891b60648201526084016101e9565b6105488282610a2b565b5050565b60003361047681858561055f838361062b565b6105699190610e8d565b610656565b6060600480546103e590610e3d565b6000338161058b828661062b565b9050838110156105eb5760405162461bcd60e51b815260206004820152602560248201527f45524332303a2064656372656173656420616c6c6f77616e63652062656c6f77604482015264207a65726f60d81b60648201526084016101e9565b6104998286868403610656565b6000336104768185856107f4565b60008281526005602052604090206001015461062181610998565b6104c98383610a2b565b6001600160a01b03918216600090815260016020908152604080832093909416825291909152205490565b6001600160a01b0383166106b85760405162461bcd60e51b8152602060048201526024808201527f45524332303a20617070726f76652066726f6d20746865207a65726f206164646044820152637265737360e01b60648201526084016101e9565b6001600160a01b0382166107195760405162461bcd60e51b815260206004820152602260248201527f45524332303a20617070726f766520746f20746865207a65726f206164647265604482015261737360f01b60648201526084016101e9565b6001600160a01b0383811660008181526001602090815260408083209487168084529482529182902085905590518481527f8c5be1e5ebec7d5bd14f71427d1e84f3dd0314c0f7b2291e5b200ac8c7c3b925910160405180910390a3505050565b6000610786848461062b565b905060001981146107ee57818110156107e15760405162461bcd60e51b815260206004820152601d60248201527f45524332303a20696e73756666696369656e7420616c6c6f77616e636500000060448201526064016101e9565b6107ee8484848403610656565b50505050565b6001600160a01b0383166108585760405162461bcd60e51b815260206004820152602560248201527f45524332303a207472616e736665722066726f6d20746865207a65726f206164604482015264647265737360d81b60648201526084016101e9565b6001600160a01b0382166108ba5760405162461bcd60e51b815260206004820152602360248201527f45524332303a207472616e7366657220746f20746865207a65726f206164647260448201526265737360e81b60648201526084016101e9565b6001600160a01b038316600090815260208190526040902054818110156109325760405162461bcd60e51b815260206004820152602660248201527f45524332303a207472616e7366657220616d6f756e7420657863656564732062604482015265616c616e636560d01b60648201526084016101e9565b6001600160a01b03848116600081815260208181526040808320878703905593871680835291849020805487019055925185815290927fddf252ad1be2c89b69c2b068fc378daa952ba7f163c4a11628f55a4df523b3ef910160405180910390a36107ee565b6109a28133610a92565b50565b6109af8282610374565b6105485760008281526005602090815260408083206001600160a01b03851684529091529020805460ff191660011790556109e73390565b6001600160a01b0316816001600160a01b0316837f2f8788117e7eff1d82e926ec794901d17c78024a50270940304540a733656f0d60405160405180910390a45050565b610a358282610374565b156105485760008281526005602090815260408083206001600160a01b0385168085529252808320805460ff1916905551339285917ff6391f5c32d9c69d2a47ea670b442974b53935d1edc7fd64eb21e047a839171b9190a45050565b610a9c8282610374565b61054857610aa981610aeb565b610ab4836020610afd565b604051602001610ac5929190610ea0565b60408051601f198184030181529082905262461bcd60e51b82526101e991600401610cfe565b606061039b6001600160a01b03831660145b60606000610b0c836002610f15565b610b17906002610e8d565b67ffffffffffffffff811115610b2f57610b2f610f2c565b6040519080825280601f01601f191660200182016040528015610b59576020820181803683370190505b509050600360fc1b81600081518110610b7457610b74610f42565b60200101906001600160f81b031916908160001a905350600f60fb1b81600181518110610ba357610ba3610f42565b60200101906001600160f81b031916908160001a9053506000610bc7846002610f15565b610bd2906001610e8d565b90505b6001811115610c4a576f181899199a1a9b1b9c1cb0b131b232b360811b85600f1660108110610c0657610c06610f42565b1a60f81b828281518110610c1c57610c1c610f42565b60200101906001600160f81b031916908160001a90535060049490941c93610c4381610f58565b9050610bd5565b508315610c995760405162461bcd60e51b815260206004820181905260248201527f537472696e67733a20686578206c656e67746820696e73756666696369656e7460448201526064016101e9565b9392505050565b8183823760009101908152919050565b600060208284031215610cc257600080fd5b81356001600160e01b031981168114610c9957600080fd5b60005b83811015610cf5578181015183820152602001610cdd565b50506000910152565b6020815260008251806020840152610d1d816040850160208701610cda565b601f01601f19169190910160400192915050565b80356001600160a01b0381168114610d4857600080fd5b919050565b60008060408385031215610d6057600080fd5b610d6983610d31565b946020939093013593505050565b600080600060608486031215610d8c57600080fd5b610d9584610d31565b9250610da360208501610d31565b9150604084013590509250925092565b600060208284031215610dc557600080fd5b5035919050565b60008060408385031215610ddf57600080fd5b82359150610def60208401610d31565b90509250929050565b600060208284031215610e0a57600080fd5b610c9982610d31565b60008060408385031215610e2657600080fd5b610e2f83610d31565b9150610def60208401610d31565b600181811c90821680610e5157607f821691505b602082108103610e7157634e487b7160e01b600052602260045260246000fd5b50919050565b634e487b7160e01b600052601160045260246000fd5b8082018082111561039b5761039b610e77565b7f416363657373436f6e74726f6c3a206163636f756e7420000000000000000000815260008351610ed8816017850160208801610cda565b7001034b99036b4b9b9b4b733903937b6329607d1b6017918401918201528351610f09816028840160208801610cda565b01602801949350505050565b808202811582820484141761039b5761039b610e77565b634e487b7160e01b600052604160045260246000fd5b634e487b7160e01b600052603260045260246000fd5b600081610f6757610f67610e77565b50600019019056fea2646970667358221220d5c0c85418d251f36e6341f198035612bbc1b42a72aa590822bba17eea5af82764736f6c63430008110033",
    "linkReferences": {}
  },
  "methodIdentifiers": {
    "DEFAULT_ADMIN_ROLE()": "a217fddf",
    "allowance(address,address)": "dd62ed3e",
    "approve(address,uint256)": "095ea7b3",
    "balanceOf(address)": "70a08231",
    "decimals()": "313ce567",
    "decreaseAllowance(address,uint256)": "a457c2d7",
    "getRoleAdmin(bytes32)": "248a9ca3",
    "grantRole(bytes32,address)": "2f2ff15d",
    "hasRole(bytes32,address)": "91d14854",
    "increaseAllowance(address,uint256)": "39509351",
    "name()": "06fdde03",
    "renounceRole(bytes32,address)": "36568abe",
    "revokeRole(bytes32,address)": "d547741f",
    "supportsInterface(bytes4)": "01ffc9a7",
    "symbol()": "95d89b41",
    "totalSupply()": "18160ddd",
    "transfer(address,uint256)": "a9059cbb",
    "transferFrom(address,address,uint256)": "23b872dd"
  },
  "id": 37
}