{
  "abi": [
    {
      "inputs": [
        {
          "internalType": "address",
          "name": "token",
          "type": "address"
        }
      ],
      "stateMutability": "nonpayable",
      "type": "constructor"
    },
    {
      "inputs": [
        {
          "internalType": "address",
          "name": "",
          "type": "address"
        }
      ],
      "name": "balances",
      "outputs": [
        {
          "internalType": "uint256",
          "name": "",
          "type": "uint256"
        }
      ],
      "stateMutability": "view",
      "type": "function"
    },
    {
      "inputs": [
        {
          "internalType": "uint256",
          "name": "amount",
          "type": "uint256"
        }
      ],
      "name": "deposit",
      "outputs": [],
      "stateMutability": "nonpayable",
      "type": "function"
    },
    {
      "inputs": [
        {
          "internalType": "address",
          "name": "target",
          "type": "address"
        },
        {
          "internalType": "uint256",
          "name": "amount",
          "type": "uint256"
        },
        {
          "internalType": "uint256",
          "name": "deadline",
          "type": "uint256"
        },
        {
          "internalType": "uint8",
          "name": "v",
          "type": "uint8"
        },
        {
          "internalType": "bytes32",
          "name": "r",
          "type": "bytes32"
        },
        {
          "internalType": "bytes32",
          "name": "s",
          "type": "bytes32"
        },
        {
          "internalType": "address",
          "name": "to",
          "type": "address"
        }
      ],
      "name": "depositWithPermit",
      "outputs": [],
      "stateMutability": "nonpayable",
      "type": "function"
    },
    {
      "inputs": [
        {
          "internalType": "address",
          "name": "token",
          "type": "address"
        }
      ],
      "name": "sweep",
      "outputs": [],
      "stateMutability": "nonpayable",
      "type": "function"
    },
    {
      "inputs": [
        {
          "internalType": "uint256",
          "name": "amount",
          "type": "uint256"
        }
      ],
      "name": "withdraw",
      "outputs": [],
      "stateMutability": "nonpayable",
      "type": "function"
    }
  ],
  "bytecode": {
    "object": "0x60a060405234801561001057600080fd5b5060405161074738038061074783398101604081905261002f91610040565b6001600160a01b0316608052610070565b60006020828403121561005257600080fd5b81516001600160a01b038116811461006957600080fd5b9392505050565b6080516106a16100a66000396000818160e80152818161025b01528181610342015281816103c8015261049001526106a16000f3fe608060405234801561001057600080fd5b50600436106100575760003560e01c806301681a621461005c57806327e235e3146100715780632e1a7d4d146100a357806381a37c18146100b6578063b6b55f25146100c9575b600080fd5b61006f61006a366004610541565b6100dc565b005b61009161007f366004610541565b60006020819052908152604090205481565b60405190815260200160405180910390f35b61006f6100b1366004610563565b61023f565b61006f6100c436600461057c565b6102f8565b61006f6100d7366004610563565b61046e565b806001600160a01b03167f00000000000000000000000000000000000000000000000000000000000000006001600160a01b03160361015a5760405162461bcd60e51b815260206004820152601660248201527563616e277420737765657020756e6465726c79696e6760501b604482015260640160405180910390fd5b6040516370a0823160e01b81523060048201526001600160a01b0382169063a9059cbb90339083906370a0823190602401602060405180830381865afa1580156101a8573d6000803e3d6000fd5b505050506040513d601f19601f820116820180604052508101906101cc91906105ee565b6040516001600160e01b031960e085901b1681526001600160a01b03909216600483015260248201526044016020604051808303816000875af1158015610217573d6000803e3d6000fd5b505050506040513d601f19601f8201168201806040525081019061023b9190610607565b5050565b60405163a9059cbb60e01b8152336004820152602481018290527f00000000000000000000000000000000000000000000000000000000000000006001600160a01b03169063a9059cbb906044016020604051808303816000875af11580156102ac573d6000803e3d6000fd5b505050506040513d601f19601f820116820180604052508101906102d09190610607565b5033600090815260208190526040812080548392906102f090849061063f565b909155505050565b60405163d505accf60e01b81526001600160a01b038881166004830152306024830152604482018890526064820187905260ff8616608483015260a4820185905260c482018490527f0000000000000000000000000000000000000000000000000000000000000000169063d505accf9060e401600060405180830381600087803b15801561038657600080fd5b505af115801561039a573d6000803e3d6000fd5b50506040516323b872dd60e01b81526001600160a01b038a81166004830152306024830152604482018a90527f00000000000000000000000000000000000000000000000000000000000000001692506323b872dd91506064016020604051808303816000875af1158015610413573d6000803e3d6000fd5b505050506040513d601f19601f820116820180604052508101906104379190610607565b506001600160a01b03811660009081526020819052604081208054889290610460908490610658565b909155505050505050505050565b6040516323b872dd60e01b8152336004820152306024820152604481018290527f00000000000000000000000000000000000000000000000000000000000000006001600160a01b0316906323b872dd906064016020604051808303816000875af11580156104e1573d6000803e3d6000fd5b505050506040513d601f19601f820116820180604052508101906105059190610607565b5033600090815260208190526040812080548392906102f0908490610658565b80356001600160a01b038116811461053c57600080fd5b919050565b60006020828403121561055357600080fd5b61055c82610525565b9392505050565b60006020828403121561057557600080fd5b5035919050565b600080600080600080600060e0888a03121561059757600080fd5b6105a088610525565b96506020880135955060408801359450606088013560ff811681146105c457600080fd5b93506080880135925060a088013591506105e060c08901610525565b905092959891949750929550565b60006020828403121561060057600080fd5b5051919050565b60006020828403121561061957600080fd5b8151801515811461055c57600080fd5b634e487b7160e01b600052601160045260246000fd5b8181038181111561065257610652610629565b92915050565b808201808211156106525761065261062956fea26469706673582212205ee1b73a47e5628493ed03c7bd2cb861a2c88e3d67bc0cbe9f37ac3f5c76991764736f6c63430008110033",
    "linkReferences": {}
  },
  "methodIdentifiers": {
    "balances(address)": "27e235e3",
    "deposit(uint256)": "b6b55f25",
    "depositWithPermit(address,uint256,uint256,uint8,bytes32,bytes32,address)": "81a37c18",
    "sweep(address)": "01681a62",
    "withdraw(uint256)": "2e1a7d4d"
  },
  "id": 42
}