{
  "abi": [
    {
      "inputs": [],
      "stateMutability": "nonpayable",
      "type": "constructor"
    },
    {
      "anonymous": false,
      "inputs": [
        {
          "indexed": true,
          "internalType": "address",
          "name": "owner",
          "type": "address"
        },
        {
          "indexed": true,
          "internalType": "address",
          "name": "spender",
          "type": "address"
        },
        {
          "indexed": false,
          "internalType": "uint256",
          "name": "value",
          "type": "uint256"
        }
      ],
      "name": "Approval",
      "type": "event"
    },
    {
      "anonymous": false,
      "inputs": [
        {
          "indexed": true,
          "internalType": "bytes32",
          "name": "role",
          "type": "bytes32"
        },
        {
          "indexed": true,
          "internalType": "bytes32",
          "name": "previousAdminRole",
          "type": "bytes32"
        },
        {
          "indexed": true,
          "internalType": "bytes32",
          "name": "newAdminRole",
          "type": "bytes32"
        }
      ],
      "name": "RoleAdminChanged",
      "type": "event"
    },
    {
      "anonymous": false,
      "inputs": [
        {
          "indexed": true,
          "internalType": "bytes32",
          "name": "role",
          "type": "bytes32"
        },
        {
          "indexed": true,
          "internalType": "address",
          "name": "account",
          "type": "address"
        },
        {
          "indexed": true,
          "internalType": "address",
          "name": "sender",
          "type": "address"
        }
      ],
      "name": "RoleGranted",
      "type": "event"
    },
    {
      "anonymous": false,
      "inputs": [
        {
          "indexed": true,
          "internalType": "bytes32",
          "name": "role",
          "type": "bytes32"
        },
        {
          "indexed": true,
          "internalType": "address",
          "name": "account",
          "type": "address"
        },
        {
          "indexed": true,
          "internalType": "address",
          "name": "sender",
          "type": "address"
        }
      ],
      "name": "RoleRevoked",
      "type": "event"
    },
    {
      "anonymous": false,
      "inputs": [
        {
          "indexed": true,
          "internalType": "address",
          "name": "from",
          "type": "address"
        },
        {
          "indexed": true,
          "internalType": "address",
          "name": "to",
          "type": "address"
        },
        {
          "indexed": false,
          "internalType": "uint256",
          "name": "value",
          "type": "uint256"
        }
      ],
      "name": "Transfer",
      "type": "event"
    },
    {
      "stateMutability": "nonpayable",
      "type": "fallback"
    },
    {
      "inputs": [],
      "name": "DEFAULT_ADMIN_ROLE",
      "outputs": [
        {
          "internalType": "bytes32",
          "name": "",
          "type": "bytes32"
        }
      ],
      "stateMutability": "view",
      "type": "function"
    },
    {
      "inputs": [],
      "name": "DOMAIN_SEPARATOR",
      "outputs": [
        {
          "internalType": "bytes32",
          "name": "",
          "type": "bytes32"
        }
      ],
      "stateMutability": "view",
      "type": "function"
    },
    {
      "inputs": [],
      "name": "MIGRATOR_ROLE",
      "outputs": [
        {
          "internalType": "bytes32",
          "name": "",
          "type": "bytes32"
        }
      ],
      "stateMutability": "view",
      "type": "function"
    },
    {
      "inputs": [
        {
          "internalType": "address",
          "name": "owner",
          "type": "address"
        },
        {
          "internalType": "address",
          "name": "spender",
          "type": "address"
        }
      ],
      "name": "allowance",
      "outputs": [
        {
          "internalType": "uint256",
          "name": "",
          "type": "uint256"
        }
      ],
      "stateMutability": "view",
      "type": "function"
    },
    {
      "inputs": [
        {
          "internalType": "address",
          "name": "spender",
          "type": "address"
        },
        {
          "internalType": "uint256",
          "name": "amount",
          "type": "uint256"
        }
      ],
      "name": "approve",
      "outputs": [
        {
          "internalType": "bool",
          "name": "",
          "type": "bool"
        }
      ],
      "stateMutability": "nonpayable",
      "type": "function"
    },
    {
      "inputs": [
        {
          "internalType": "address",
          "name": "account",
          "type": "address"
        }
      ],
      "name": "balanceOf",
      "outputs": [
        {
          "internalType": "uint256",
          "name": "",
          "type": "uint256"
        }
      ],
      "stateMutability": "view",
      "type": "function"
    },
    {
      "inputs": [],
      "name": "decimals",
      "outputs": [
        {
          "internalType": "uint8",
          "name": "",
          "type": "uint8"
        }
      ],
      "stateMutability": "view",
      "type": "function"
    },
    {
      "inputs": [
        {
          "internalType": "address",
          "name": "spender",
          "type": "address"
        },
        {
          "internalType": "uint256",
          "name": "subtractedValue",
          "type": "uint256"
        }
      ],
      "name": "decreaseAllowance",
      "outputs": [
        {
          "internalType": "bool",
          "name": "",
          "type": "bool"
        }
      ],
      "stateMutability": "nonpayable",
      "type": "function"
    },
    {
      "inputs": [
        {
          "internalType": "bytes32",
          "name": "role",
          "type": "bytes32"
        }
      ],
      "name": "getRoleAdmin",
      "outputs": [
        {
          "internalType": "bytes32",
          "name": "",
          "type": "bytes32"
        }
      ],
      "stateMutability": "view",
      "type": "function"
    },
    {
      "inputs": [
        {
          "internalType": "bytes32",
          "name": "role",
          "type": "bytes32"
        },
        {
          "internalType": "address",
          "name": "account",
          "type": "address"
        }
      ],
      "name": "grantRole",
      "outputs": [],
      "stateMutability": "nonpayable",
      "type": "function"
    },
    {
      "inputs": [
        {
          "internalType": "bytes32",
          "name": "role",
          "type": "bytes32"
        },
        {
          "internalType": "address",
          "name": "account",
          "type": "address"
        }
      ],
      "name": "hasRole",
      "outputs": [
        {
          "internalType": "bool",
          "name": "",
          "type": "bool"
        }
      ],
      "stateMutability": "view",
      "type": "function"
    },
    {
      "inputs": [
        {
          "internalType": "address",
          "name": "spender",
          "type": "address"
        },
        {
          "internalType": "uint256",
          "name": "addedValue",
          "type": "uint256"
        }
      ],
      "name": "increaseAllowance",
      "outputs": [
        {
          "internalType": "bool",
          "name": "",
          "type": "bool"
        }
      ],
      "stateMutability": "nonpayable",
      "type": "function"
    },
    {
      "inputs": [],
      "name": "name",
      "outputs": [
        {
          "internalType": "string",
          "name": "",
          "type": "string"
        }
      ],
      "stateMutability": "view",
      "type": "function"
    },
    {
      "inputs": [
        {
          "internalType": "address",
          "name": "owner",
          "type": "address"
        }
      ],
      "name": "nonces",
      "outputs": [
        {
          "internalType": "uint256",
          "name": "",
          "type": "uint256"
        }
      ],
      "stateMutability": "view",
      "type": "function"
    },
    {
      "inputs": [
        {
          "internalType": "address",
          "name": "owner",
          "type": "address"
        },
        {
          "internalType": "address",
          "name": "spender",
          "type": "address"
        },
        {
          "internalType": "uint256",
          "name": "value",
          "type": "uint256"
        },
        {
          "internalType": "uint256",
          "name": "deadline",
          "type": "uint256"
        },
        {
          "internalType": "uint8",
          "name": "v",
          "type": "uint8"
        },
        {
          "internalType": "bytes32",
          "name": "r",
          "type": "bytes32"
        },
        {
          "internalType": "bytes32",
          "name": "s",
          "type": "bytes32"
        }
      ],
      "name": "permit",
      "outputs": [],
      "stateMutability": "nonpayable",
      "type": "function"
    },
    {
      "inputs": [
        {
          "internalType": "bytes32",
          "name": "role",
          "type": "bytes32"
        },
        {
          "internalType": "address",
          "name": "account",
          "type": "address"
        }
      ],
      "name": "renounceRole",
      "outputs": [],
      "stateMutability": "nonpayable",
      "type": "function"
    },
    {
      "inputs": [
        {
          "internalType": "bytes32",
          "name": "role",
          "type": "bytes32"
        },
        {
          "internalType": "address",
          "name": "account",
          "type": "address"
        }
      ],
      "name": "revokeRole",
      "outputs": [],
      "stateMutability": "nonpayable",
      "type": "function"
    },
    {
      "inputs": [
        {
          "internalType": "bytes4",
          "name": "interfaceId",
          "type": "bytes4"
        }
      ],
      "name": "supportsInterface",
      "outputs": [
        {
          "internalType": "bool",
          "name": "",
          "type": "bool"
        }
      ],
      "stateMutability": "view",
      "type": "function"
    },
    {
      "inputs": [],
      "name": "symbol",
      "outputs": [
        {
          "internalType": "string",
          "name": "",
          "type": "string"
        }
      ],
      "stateMutability": "view",
      "type": "function"
    },
    {
      "inputs": [],
      "name": "totalSupply",
      "outputs": [
        {
          "internalType": "uint256",
          "name": "",
          "type": "uint256"
        }
      ],
      "stateMutability": "view",
      "type": "function"
    },
    {
      "inputs": [
        {
          "internalType": "address",
          "name": "to",
          "type": "address"
        },
        {
          "internalType": "uint256",
          "name": "amount",
          "type": "uint256"
        }
      ],
      "name": "transfer",
      "outputs": [
        {
          "internalType": "bool",
          "name": "",
          "type": "bool"
        }
      ],
      "stateMutability": "nonpayable",
      "type": "function"
    },
    {
      "inputs": [
        {
          "internalType": "address",
          "name": "from",
          "type": "address"
        },
        {
          "internalType": "address",
          "name": "to",
          "type": "address"
        },
        {
          "internalType": "uint256",
          "name": "amount",
          "type": "uint256"
        }
      ],
      "name": "transferFrom",
      "outputs": [
        {
          "internalType": "bool",
          "name": "",
          "type": "bool"
        }
      ],
      "stateMutability": "nonpayable",
      "type": "function"
    }
  ],
  "bytecode": {
    "object": "0x6101406040527f600e5f1c60beb469a3fa6dd3814a4ae211cc6259a6d033bae218a742f2af01d36006553480156200003657600080fd5b50604051806040016040528060058152602001642a37b5b2b760d91b81525080604051806040016040528060018152602001603160f81b815250604051806040016040528060058152602001642a37b5b2b760d91b815250604051806040016040528060038152602001622a25a760e91b8152508160039081620000bb91906200032b565b506004620000ca82826200032b565b50620000dc9150600090503362000172565b815160209283012081519183019190912060e08290526101008190524660a0818152604080517f8b73c3c69bb8fe3d512ecc4cf759cc79239f7b179b0ffacaa9a75d522b39400f818801819052818301969096526060810194909452608080850193909352308483018190528151808603909301835260c094850190915281519190950120905291909152610120525062000476565b6200017e8282620001ff565b620001fb5760008281526005602090815260408083206001600160a01b03851684529091529020805460ff19166001179055620001ba6200022c565b6001600160a01b0316816001600160a01b0316837f2f8788117e7eff1d82e926ec794901d17c78024a50270940304540a733656f0d60405160405180910390a45b5050565b60008281526005602090815260408083206001600160a01b038516845290915290205460ff165b92915050565b6000303b810362000251576200024c6200028260201b6200086f1760201c565b905090565b60003662000261601482620003f7565b6200026f9236929062000419565b6200027a9162000445565b60601c905090565b3390565b634e487b7160e01b600052604160045260246000fd5b600181811c90821680620002b157607f821691505b602082108103620002d257634e487b7160e01b600052602260045260246000fd5b50919050565b601f8211156200032657600081815260208120601f850160051c81016020861015620003015750805b601f850160051c820191505b8181101562000322578281556001016200030d565b5050505b505050565b81516001600160401b0381111562000347576200034762000286565b6200035f816200035884546200029c565b84620002d8565b602080601f8311600181146200039757600084156200037e5750858301515b600019600386901b1c1916600185901b17855562000322565b600085815260208120601f198616915b82811015620003c857888601518255948401946001909101908401620003a7565b5085821015620003e75787850151600019600388901b60f8161c191681555b5050505050600190811b01905550565b818103818111156200022657634e487b7160e01b600052601160045260246000fd5b600080858511156200042a57600080fd5b838611156200043857600080fd5b5050820193919092039150565b6001600160601b031981358181169160148510156200046e5780818660140360031b1b83161692505b505092915050565b60805160a05160c05160e05161010051610120516116ea620004c66000396000610d1401526000610d6301526000610d3e01526000610c9701526000610cc101526000610ceb01526116ea6000f3fe608060405234801561001057600080fd5b50600436106101425760003560e01c80636fae2e15116100b8578063a217fddf1161007c578063a217fddf14610352578063a457c2d71461035a578063a9059cbb1461036d578063d505accf14610380578063d547741f14610393578063dd62ed3e146103a657610142565b80636fae2e15146102f257806370a08231146102fb5780637ecebe001461032457806391d148541461033757806395d89b411461034a57610142565b8063248a9ca31161010a578063248a9ca31461027f5780632f2ff15d146102a2578063313ce567146102b55780633644e515146102c457806336568abe146102cc57806339509351146102df57610142565b806301ffc9a71461020a57806306fdde0314610232578063095ea7b31461024757806318160ddd1461025a57806323b872dd1461026c575b61014e600654336103b9565b1561020857600080336001600160a01b03166000366040516101719291906112f0565b600060405180830381855af49150503d80600081146101ac576040519150601f19603f3d011682016040523d82523d6000602084013e6101b1565b606091505b5091509150816102005760405162461bcd60e51b8152602060048201526015602482015274135251d490551253d38810d0531308119052531151605a1b60448201526064015b60405180910390fd5b805160208201f35b005b61021d610218366004611300565b6103e6565b60405190151581526020015b60405180910390f35b61023a61041b565b604051610229919061134e565b61021d61025536600461139d565b6104ad565b6002545b604051908152602001610229565b61021d61027a3660046113c7565b6104cf565b61025e61028d366004611403565b60009081526005602052604090206001015490565b6102086102b036600461141c565b6104fd565b60405160128152602001610229565b61025e610527565b6102086102da36600461141c565b610536565b61021d6102ed36600461139d565b6105c4565b61025e60065481565b61025e610309366004611448565b6001600160a01b031660009081526020819052604090205490565b61025e610332366004611448565b6105f0565b61021d61034536600461141c565b6103b9565b61023a61060e565b61025e600081565b61021d61036836600461139d565b61061d565b61021d61037b36600461139d565b6106a3565b61020861038e366004611463565b6106bb565b6102086103a136600461141c565b61081f565b61025e6103b43660046114d6565b610844565b60008281526005602090815260408083206001600160a01b038516845290915290205460ff165b92915050565b60006001600160e01b03198216637965db0b60e01b14806103e057506301ffc9a760e01b6001600160e01b03198316146103e0565b60606003805461042a90611500565b80601f016020809104026020016040519081016040528092919081815260200182805461045690611500565b80156104a35780601f10610478576101008083540402835291602001916104a3565b820191906000526020600020905b81548152906001019060200180831161048657829003601f168201915b5050505050905090565b6000806104b8610873565b90506104c58185856108ad565b5060019392505050565b6000806104da610873565b90506104e78582856109d1565b6104f2858585610a4b565b506001949350505050565b60008281526005602052604090206001015461051881610bef565b6105228383610c03565b505050565b6000610531610c8a565b905090565b61053e610873565b6001600160a01b0316816001600160a01b0316146105b65760405162461bcd60e51b815260206004820152602f60248201527f416363657373436f6e74726f6c3a2063616e206f6e6c792072656e6f756e636560448201526e103937b632b9903337b91039b2b63360891b60648201526084016101f7565b6105c08282610db1565b5050565b6000806105cf610873565b90506104c58185856105e18589610844565b6105eb919061154a565b6108ad565b6001600160a01b0381166000908152600760205260408120546103e0565b60606004805461042a90611500565b600080610628610873565b905060006106368286610844565b9050838110156106965760405162461bcd60e51b815260206004820152602560248201527f45524332303a2064656372656173656420616c6c6f77616e63652062656c6f77604482015264207a65726f60d81b60648201526084016101f7565b6104f282868684036108ad565b6000806106ae610873565b90506104c5818585610a4b565b8342111561070b5760405162461bcd60e51b815260206004820152601d60248201527f45524332305065726d69743a206578706972656420646561646c696e6500000060448201526064016101f7565b60007f6e71edae12b1b97f4d1f60370fef10105fa2faae0126114a169c64845d6126c988888861073a8c610e36565b6040805160208101969096526001600160a01b0394851690860152929091166060840152608083015260a082015260c0810186905260e001604051602081830303815290604052805190602001209050600061079582610e5e565b905060006107a582878787610eac565b9050896001600160a01b0316816001600160a01b0316146108085760405162461bcd60e51b815260206004820152601e60248201527f45524332305065726d69743a20696e76616c6964207369676e6174757265000060448201526064016101f7565b6108138a8a8a6108ad565b50505050505050505050565b60008281526005602052604090206001015461083a81610bef565b6105228383610db1565b6001600160a01b03918216600090815260016020908152604080832093909416825291909152205490565b3390565b6000303b810361088257503390565b60003661089060148261155d565b61089c92369290611570565b6108a59161159a565b60601c905090565b6001600160a01b03831661090f5760405162461bcd60e51b8152602060048201526024808201527f45524332303a20617070726f76652066726f6d20746865207a65726f206164646044820152637265737360e01b60648201526084016101f7565b6001600160a01b0382166109705760405162461bcd60e51b815260206004820152602260248201527f45524332303a20617070726f766520746f20746865207a65726f206164647265604482015261737360f01b60648201526084016101f7565b6001600160a01b0383811660008181526001602090815260408083209487168084529482529182902085905590518481527f8c5be1e5ebec7d5bd14f71427d1e84f3dd0314c0f7b2291e5b200ac8c7c3b925910160405180910390a3505050565b60006109dd8484610844565b90506000198114610a455781811015610a385760405162461bcd60e51b815260206004820152601d60248201527f45524332303a20696e73756666696369656e7420616c6c6f77616e636500000060448201526064016101f7565b610a4584848484036108ad565b50505050565b6001600160a01b038316610aaf5760405162461bcd60e51b815260206004820152602560248201527f45524332303a207472616e736665722066726f6d20746865207a65726f206164604482015264647265737360d81b60648201526084016101f7565b6001600160a01b038216610b115760405162461bcd60e51b815260206004820152602360248201527f45524332303a207472616e7366657220746f20746865207a65726f206164647260448201526265737360e81b60648201526084016101f7565b6001600160a01b03831660009081526020819052604090205481811015610b895760405162461bcd60e51b815260206004820152602660248201527f45524332303a207472616e7366657220616d6f756e7420657863656564732062604482015265616c616e636560d01b60648201526084016101f7565b6001600160a01b03848116600081815260208181526040808320878703905593871680835291849020805487019055925185815290927fddf252ad1be2c89b69c2b068fc378daa952ba7f163c4a11628f55a4df523b3ef910160405180910390a3610a45565b610c0081610bfb610873565b610ed4565b50565b610c0d82826103b9565b6105c05760008281526005602090815260408083206001600160a01b03851684529091529020805460ff19166001179055610c46610873565b6001600160a01b0316816001600160a01b0316837f2f8788117e7eff1d82e926ec794901d17c78024a50270940304540a733656f0d60405160405180910390a45050565b6000306001600160a01b037f000000000000000000000000000000000000000000000000000000000000000016148015610ce357507f000000000000000000000000000000000000000000000000000000000000000046145b15610d0d57507f000000000000000000000000000000000000000000000000000000000000000090565b50604080517f00000000000000000000000000000000000000000000000000000000000000006020808301919091527f0000000000000000000000000000000000000000000000000000000000000000828401527f000000000000000000000000000000000000000000000000000000000000000060608301524660808301523060a0808401919091528351808403909101815260c0909201909252805191012090565b610dbb82826103b9565b156105c05760008281526005602090815260408083206001600160a01b03851684529091529020805460ff19169055610df2610873565b6001600160a01b0316816001600160a01b0316837ff6391f5c32d9c69d2a47ea670b442974b53935d1edc7fd64eb21e047a839171b60405160405180910390a45050565b6001600160a01b03811660009081526007602052604090208054600181018255905b50919050565b60006103e0610e6b610c8a565b8360405161190160f01b6020820152602281018390526042810182905260009060620160405160208183030381529060405280519060200120905092915050565b6000806000610ebd87878787610f2d565b91509150610eca81610ff1565b5095945050505050565b610ede82826103b9565b6105c057610eeb8161113b565b610ef683602061114d565b604051602001610f079291906115cf565b60408051601f198184030181529082905262461bcd60e51b82526101f79160040161134e565b6000807f7fffffffffffffffffffffffffffffff5d576e7357a4501ddfe92f46681b20a0831115610f645750600090506003610fe8565b6040805160008082526020820180845289905260ff881692820192909252606081018690526080810185905260019060a0016020604051602081039080840390855afa158015610fb8573d6000803e3d6000fd5b5050604051601f1901519150506001600160a01b038116610fe157600060019250925050610fe8565b9150600090505b94509492505050565b600081600481111561100557611005611644565b0361100d5750565b600181600481111561102157611021611644565b0361106e5760405162461bcd60e51b815260206004820152601860248201527f45434453413a20696e76616c6964207369676e6174757265000000000000000060448201526064016101f7565b600281600481111561108257611082611644565b036110cf5760405162461bcd60e51b815260206004820152601f60248201527f45434453413a20696e76616c6964207369676e6174757265206c656e6774680060448201526064016101f7565b60038160048111156110e3576110e3611644565b03610c005760405162461bcd60e51b815260206004820152602260248201527f45434453413a20696e76616c6964207369676e6174757265202773272076616c604482015261756560f01b60648201526084016101f7565b60606103e06001600160a01b03831660145b6060600061115c83600261165a565b61116790600261154a565b67ffffffffffffffff81111561117f5761117f611671565b6040519080825280601f01601f1916602001820160405280156111a9576020820181803683370190505b509050600360fc1b816000815181106111c4576111c4611687565b60200101906001600160f81b031916908160001a905350600f60fb1b816001815181106111f3576111f3611687565b60200101906001600160f81b031916908160001a905350600061121784600261165a565b61122290600161154a565b90505b600181111561129a576f181899199a1a9b1b9c1cb0b131b232b360811b85600f166010811061125657611256611687565b1a60f81b82828151811061126c5761126c611687565b60200101906001600160f81b031916908160001a90535060049490941c936112938161169d565b9050611225565b5083156112e95760405162461bcd60e51b815260206004820181905260248201527f537472696e67733a20686578206c656e67746820696e73756666696369656e7460448201526064016101f7565b9392505050565b8183823760009101908152919050565b60006020828403121561131257600080fd5b81356001600160e01b0319811681146112e957600080fd5b60005b8381101561134557818101518382015260200161132d565b50506000910152565b602081526000825180602084015261136d81604085016020870161132a565b601f01601f19169190910160400192915050565b80356001600160a01b038116811461139857600080fd5b919050565b600080604083850312156113b057600080fd5b6113b983611381565b946020939093013593505050565b6000806000606084860312156113dc57600080fd5b6113e584611381565b92506113f360208501611381565b9150604084013590509250925092565b60006020828403121561141557600080fd5b5035919050565b6000806040838503121561142f57600080fd5b8235915061143f60208401611381565b90509250929050565b60006020828403121561145a57600080fd5b6112e982611381565b600080600080600080600060e0888a03121561147e57600080fd5b61148788611381565b965061149560208901611381565b95506040880135945060608801359350608088013560ff811681146114b957600080fd5b9699959850939692959460a0840135945060c09093013592915050565b600080604083850312156114e957600080fd5b6114f283611381565b915061143f60208401611381565b600181811c9082168061151457607f821691505b602082108103610e5857634e487b7160e01b600052602260045260246000fd5b634e487b7160e01b600052601160045260246000fd5b808201808211156103e0576103e0611534565b818103818111156103e0576103e0611534565b6000808585111561158057600080fd5b8386111561158d57600080fd5b5050820193919092039150565b6bffffffffffffffffffffffff1981358181169160148510156115c75780818660140360031b1b83161692505b505092915050565b7f416363657373436f6e74726f6c3a206163636f756e742000000000000000000081526000835161160781601785016020880161132a565b7001034b99036b4b9b9b4b733903937b6329607d1b601791840191820152835161163881602884016020880161132a565b01602801949350505050565b634e487b7160e01b600052602160045260246000fd5b80820281158282048414176103e0576103e0611534565b634e487b7160e01b600052604160045260246000fd5b634e487b7160e01b600052603260045260246000fd5b6000816116ac576116ac611534565b50600019019056fea264697066735822122087bbbfdb1b4419feb3570bf48158606170c65d3ec9ef254a42186f9966d5dc4b64736f6c63430008110033",
    "linkReferences": {}
  },
  "methodIdentifiers": {
    "DEFAULT_ADMIN_ROLE()": "a217fddf",
    "DOMAIN_SEPARATOR()": "3644e515",
    "MIGRATOR_ROLE()": "6fae2e15",
    "allowance(address,address)": "dd62ed3e",
    "approve(address,uint256)": "095ea7b3",
    "balanceOf(address)": "70a08231",
    "decimals()": "313ce567",
    "decreaseAllowance(address,uint256)": "a457c2d7",
    "getRoleAdmin(bytes32)": "248a9ca3",
    "grantRole(bytes32,address)": "2f2ff15d",
    "hasRole(bytes32,address)": "91d14854",
    "increaseAllowance(address,uint256)": "39509351",
    "name()": "06fdde03",
    "nonces(address)": "7ecebe00",
    "permit(address,address,uint256,uint256,uint8,bytes32,bytes32)": "d505accf",
    "renounceRole(bytes32,address)": "36568abe",
    "revokeRole(bytes32,address)": "d547741f",
    "supportsInterface(bytes4)": "01ffc9a7",
    "symbol()": "95d89b41",
    "totalSupply()": "18160ddd",
    "transfer(address,uint256)": "a9059cbb",
    "transferFrom(address,address,uint256)": "23b872dd"
  },
  "id": 41
}