{
  "abi": [
    {
      "inputs": [],
      "stateMutability": "nonpayable",
      "type": "constructor"
    },
    {
      "anonymous": false,
      "inputs": [
        {
          "indexed": true,
          "internalType": "address",
          "name": "owner",
          "type": "address"
        },
        {
          "indexed": true,
          "internalType": "address",
          "name": "spender",
          "type": "address"
        },
        {
          "indexed": false,
          "internalType": "uint256",
          "name": "value",
          "type": "uint256"
        }
      ],
      "name": "Approval",
      "type": "event"
    },
    {
      "anonymous": false,
      "inputs": [
        {
          "indexed": true,
          "internalType": "bytes32",
          "name": "role",
          "type": "bytes32"
        },
        {
          "indexed": true,
          "internalType": "bytes32",
          "name": "previousAdminRole",
          "type": "bytes32"
        },
        {
          "indexed": true,
          "internalType": "bytes32",
          "name": "newAdminRole",
          "type": "bytes32"
        }
      ],
      "name": "RoleAdminChanged",
      "type": "event"
    },
    {
      "anonymous": false,
      "inputs": [
        {
          "indexed": true,
          "internalType": "bytes32",
          "name": "role",
          "type": "bytes32"
        },
        {
          "indexed": true,
          "internalType": "address",
          "name": "account",
          "type": "address"
        },
        {
          "indexed": true,
          "internalType": "address",
          "name": "sender",
          "type": "address"
        }
      ],
      "name": "RoleGranted",
      "type": "event"
    },
    {
      "anonymous": false,
      "inputs": [
        {
          "indexed": true,
          "internalType": "bytes32",
          "name": "role",
          "type": "bytes32"
        },
        {
          "indexed": true,
          "internalType": "address",
          "name": "account",
          "type": "address"
        },
        {
          "indexed": true,
          "internalType": "address",
          "name": "sender",
          "type": "address"
        }
      ],
      "name": "RoleRevoked",
      "type": "event"
    },
    {
      "anonymous": false,
      "inputs": [
        {
          "indexed": true,
          "internalType": "address",
          "name": "from",
          "type": "address"
        },
        {
          "indexed": true,
          "internalType": "address",
          "name": "to",
          "type": "address"
        },
        {
          "indexed": false,
          "internalType": "uint256",
          "name": "value",
          "type": "uint256"
        }
      ],
      "name": "Transfer",
      "type": "event"
    },
    {
      "stateMutability": "nonpayable",
      "type": "fallback"
    },
    {
      "inputs": [],
      "name": "DEFAULT_ADMIN_ROLE",
      "outputs": [
        {
          "internalType": "bytes32",
          "name": "",
          "type": "bytes32"
        }
      ],
      "stateMutability": "view",
      "type": "function"
    },
    {
      "inputs": [],
      "name": "DOMAIN_SEPARATOR",
      "outputs": [
        {
          "internalType": "bytes32",
          "name": "",
          "type": "bytes32"
        }
      ],
      "stateMutability": "view",
      "type": "function"
    },
    {
      "inputs": [
        {
          "internalType": "address",
          "name": "owner",
          "type": "address"
        },
        {
          "internalType": "address",
          "name": "spender",
          "type": "address"
        }
      ],
      "name": "allowance",
      "outputs": [
        {
          "internalType": "uint256",
          "name": "",
          "type": "uint256"
        }
      ],
      "stateMutability": "view",
      "type": "function"
    },
    {
      "inputs": [
        {
          "internalType": "address",
          "name": "spender",
          "type": "address"
        },
        {
          "internalType": "uint256",
          "name": "amount",
          "type": "uint256"
        }
      ],
      "name": "approve",
      "outputs": [
        {
          "internalType": "bool",
          "name": "",
          "type": "bool"
        }
      ],
      "stateMutability": "nonpayable",
      "type": "function"
    },
    {
      "inputs": [
        {
          "internalType": "address",
          "name": "account",
          "type": "address"
        }
      ],
      "name": "balanceOf",
      "outputs": [
        {
          "internalType": "uint256",
          "name": "",
          "type": "uint256"
        }
      ],
      "stateMutability": "view",
      "type": "function"
    },
    {
      "inputs": [],
      "name": "decimals",
      "outputs": [
        {
          "internalType": "uint8",
          "name": "",
          "type": "uint8"
        }
      ],
      "stateMutability": "view",
      "type": "function"
    },
    {
      "inputs": [
        {
          "internalType": "address",
          "name": "spender",
          "type": "address"
        },
        {
          "internalType": "uint256",
          "name": "subtractedValue",
          "type": "uint256"
        }
      ],
      "name": "decreaseAllowance",
      "outputs": [
        {
          "internalType": "bool",
          "name": "",
          "type": "bool"
        }
      ],
      "stateMutability": "nonpayable",
      "type": "function"
    },
    {
      "inputs": [
        {
          "internalType": "bytes32",
          "name": "role",
          "type": "bytes32"
        }
      ],
      "name": "getRoleAdmin",
      "outputs": [
        {
          "internalType": "bytes32",
          "name": "",
          "type": "bytes32"
        }
      ],
      "stateMutability": "view",
      "type": "function"
    },
    {
      "inputs": [
        {
          "internalType": "bytes32",
          "name": "role",
          "type": "bytes32"
        },
        {
          "internalType": "address",
          "name": "account",
          "type": "address"
        }
      ],
      "name": "grantRole",
      "outputs": [],
      "stateMutability": "nonpayable",
      "type": "function"
    },
    {
      "inputs": [
        {
          "internalType": "bytes32",
          "name": "role",
          "type": "bytes32"
        },
        {
          "internalType": "address",
          "name": "account",
          "type": "address"
        }
      ],
      "name": "hasRole",
      "outputs": [
        {
          "internalType": "bool",
          "name": "",
          "type": "bool"
        }
      ],
      "stateMutability": "view",
      "type": "function"
    },
    {
      "inputs": [
        {
          "internalType": "address",
          "name": "spender",
          "type": "address"
        },
        {
          "internalType": "uint256",
          "name": "addedValue",
          "type": "uint256"
        }
      ],
      "name": "increaseAllowance",
      "outputs": [
        {
          "internalType": "bool",
          "name": "",
          "type": "bool"
        }
      ],
      "stateMutability": "nonpayable",
      "type": "function"
    },
    {
      "inputs": [],
      "name": "name",
      "outputs": [
        {
          "internalType": "string",
          "name": "",
          "type": "string"
        }
      ],
      "stateMutability": "view",
      "type": "function"
    },
    {
      "inputs": [
        {
          "internalType": "address",
          "name": "owner",
          "type": "address"
        }
      ],
      "name": "nonces",
      "outputs": [
        {
          "internalType": "uint256",
          "name": "",
          "type": "uint256"
        }
      ],
      "stateMutability": "view",
      "type": "function"
    },
    {
      "inputs": [
        {
          "internalType": "address",
          "name": "owner",
          "type": "address"
        },
        {
          "internalType": "address",
          "name": "spender",
          "type": "address"
        },
        {
          "internalType": "uint256",
          "name": "value",
          "type": "uint256"
        },
        {
          "internalType": "uint256",
          "name": "deadline",
          "type": "uint256"
        },
        {
          "internalType": "uint8",
          "name": "v",
          "type": "uint8"
        },
        {
          "internalType": "bytes32",
          "name": "r",
          "type": "bytes32"
        },
        {
          "internalType": "bytes32",
          "name": "s",
          "type": "bytes32"
        }
      ],
      "name": "permit",
      "outputs": [],
      "stateMutability": "nonpayable",
      "type": "function"
    },
    {
      "inputs": [
        {
          "internalType": "bytes32",
          "name": "role",
          "type": "bytes32"
        },
        {
          "internalType": "address",
          "name": "account",
          "type": "address"
        }
      ],
      "name": "renounceRole",
      "outputs": [],
      "stateMutability": "nonpayable",
      "type": "function"
    },
    {
      "inputs": [
        {
          "internalType": "bytes32",
          "name": "role",
          "type": "bytes32"
        },
        {
          "internalType": "address",
          "name": "account",
          "type": "address"
        }
      ],
      "name": "revokeRole",
      "outputs": [],
      "stateMutability": "nonpayable",
      "type": "function"
    },
    {
      "inputs": [
        {
          "internalType": "bytes4",
          "name": "interfaceId",
          "type": "bytes4"
        }
      ],
      "name": "supportsInterface",
      "outputs": [
        {
          "internalType": "bool",
          "name": "",
          "type": "bool"
        }
      ],
      "stateMutability": "view",
      "type": "function"
    },
    {
      "inputs": [],
      "name": "symbol",
      "outputs": [
        {
          "internalType": "string",
          "name": "",
          "type": "string"
        }
      ],
      "stateMutability": "view",
      "type": "function"
    },
    {
      "inputs": [],
      "name": "totalSupply",
      "outputs": [
        {
          "internalType": "uint256",
          "name": "",
          "type": "uint256"
        }
      ],
      "stateMutability": "view",
      "type": "function"
    },
    {
      "inputs": [
        {
          "internalType": "address",
          "name": "to",
          "type": "address"
        },
        {
          "internalType": "uint256",
          "name": "amount",
          "type": "uint256"
        }
      ],
      "name": "transfer",
      "outputs": [
        {
          "internalType": "bool",
          "name": "",
          "type": "bool"
        }
      ],
      "stateMutability": "nonpayable",
      "type": "function"
    },
    {
      "inputs": [
        {
          "internalType": "address",
          "name": "from",
          "type": "address"
        },
        {
          "internalType": "address",
          "name": "to",
          "type": "address"
        },
        {
          "internalType": "uint256",
          "name": "amount",
          "type": "uint256"
        }
      ],
      "name": "transferFrom",
      "outputs": [
        {
          "internalType": "bool",
          "name": "",
          "type": "bool"
        }
      ],
      "stateMutability": "nonpayable",
      "type": "function"
    }
  ],
  "bytecode": {
    "object": "0x6101406040527f600e5f1c60beb469a3fa6dd3814a4ae211cc6259a6d033bae218a742f2af01d36006553480156200003657600080fd5b50604051806040016040528060058152602001642a37b5b2b760d91b81525080604051806040016040528060018152602001603160f81b815250604051806040016040528060058152602001642a37b5b2b760d91b815250604051806040016040528060038152602001622a25a760e91b8152508160039081620000bb91906200032b565b506004620000ca82826200032b565b50620000dc9150600090503362000172565b815160209283012081519183019190912060e08290526101008190524660a0818152604080517f8b73c3c69bb8fe3d512ecc4cf759cc79239f7b179b0ffacaa9a75d522b39400f818801819052818301969096526060810194909452608080850193909352308483018190528151808603909301835260c094850190915281519190950120905291909152610120525062000476565b6200017e8282620001ff565b620001fb5760008281526005602090815260408083206001600160a01b03851684529091529020805460ff19166001179055620001ba6200022c565b6001600160a01b0316816001600160a01b0316837f2f8788117e7eff1d82e926ec794901d17c78024a50270940304540a733656f0d60405160405180910390a45b5050565b60008281526005602090815260408083206001600160a01b038516845290915290205460ff165b92915050565b6000303b810362000251576200024c6200028260201b6200085b1760201c565b905090565b60003662000261601482620003f7565b6200026f9236929062000419565b6200027a9162000445565b60601c905090565b3390565b634e487b7160e01b600052604160045260246000fd5b600181811c90821680620002b157607f821691505b602082108103620002d257634e487b7160e01b600052602260045260246000fd5b50919050565b601f8211156200032657600081815260208120601f850160051c81016020861015620003015750805b601f850160051c820191505b8181101562000322578281556001016200030d565b5050505b505050565b81516001600160401b0381111562000347576200034762000286565b6200035f816200035884546200029c565b84620002d8565b602080601f8311600181146200039757600084156200037e5750858301515b600019600386901b1c1916600185901b17855562000322565b600085815260208120601f198616915b82811015620003c857888601518255948401946001909101908401620003a7565b5085821015620003e75787850151600019600388901b60f8161c191681555b5050505050600190811b01905550565b818103818111156200022657634e487b7160e01b600052601160045260246000fd5b600080858511156200042a57600080fd5b838611156200043857600080fd5b5050820193919092039150565b6001600160601b031981358181169160148510156200046e5780818660140360031b1b83161692505b505092915050565b60805160a05160c05160e05161010051610120516116d6620004c66000396000610d0001526000610d4f01526000610d2a01526000610c8301526000610cad01526000610cd701526116d66000f3fe608060405234801561001057600080fd5b50600436106101375760003560e01c806339509351116100b8578063a217fddf1161007c578063a217fddf1461033e578063a457c2d714610346578063a9059cbb14610359578063d505accf1461036c578063d547741f1461037f578063dd62ed3e1461039257610137565b806339509351146102d457806370a08231146102e75780637ecebe001461031057806391d148541461032357806395d89b411461033657610137565b8063248a9ca3116100ff578063248a9ca3146102745780632f2ff15d14610297578063313ce567146102aa5780633644e515146102b957806336568abe146102c157610137565b806301ffc9a7146101ff57806306fdde0314610227578063095ea7b31461023c57806318160ddd1461024f57806323b872dd14610261575b610143600654336103a5565b156101fd57600080336001600160a01b03166000366040516101669291906112dc565b600060405180830381855af49150503d80600081146101a1576040519150601f19603f3d011682016040523d82523d6000602084013e6101a6565b606091505b5091509150816101f55760405162461bcd60e51b8152602060048201526015602482015274135251d490551253d38810d0531308119052531151605a1b60448201526064015b60405180910390fd5b805160208201f35b005b61021261020d3660046112ec565b6103d2565b60405190151581526020015b60405180910390f35b61022f610407565b60405161021e919061133a565b61021261024a366004611389565b610499565b6002545b60405190815260200161021e565b61021261026f3660046113b3565b6104bb565b6102536102823660046113ef565b60009081526005602052604090206001015490565b6101fd6102a5366004611408565b6104e9565b6040516012815260200161021e565b610253610513565b6101fd6102cf366004611408565b610522565b6102126102e2366004611389565b6105b0565b6102536102f5366004611434565b6001600160a01b031660009081526020819052604090205490565b61025361031e366004611434565b6105dc565b610212610331366004611408565b6103a5565b61022f6105fa565b610253600081565b610212610354366004611389565b610609565b610212610367366004611389565b61068f565b6101fd61037a36600461144f565b6106a7565b6101fd61038d366004611408565b61080b565b6102536103a03660046114c2565b610830565b60008281526005602090815260408083206001600160a01b038516845290915290205460ff165b92915050565b60006001600160e01b03198216637965db0b60e01b14806103cc57506301ffc9a760e01b6001600160e01b03198316146103cc565b606060038054610416906114ec565b80601f0160208091040260200160405190810160405280929190818152602001828054610442906114ec565b801561048f5780601f106104645761010080835404028352916020019161048f565b820191906000526020600020905b81548152906001019060200180831161047257829003601f168201915b5050505050905090565b6000806104a461085f565b90506104b1818585610899565b5060019392505050565b6000806104c661085f565b90506104d38582856109bd565b6104de858585610a37565b506001949350505050565b60008281526005602052604090206001015461050481610bdb565b61050e8383610bef565b505050565b600061051d610c76565b905090565b61052a61085f565b6001600160a01b0316816001600160a01b0316146105a25760405162461bcd60e51b815260206004820152602f60248201527f416363657373436f6e74726f6c3a2063616e206f6e6c792072656e6f756e636560448201526e103937b632b9903337b91039b2b63360891b60648201526084016101ec565b6105ac8282610d9d565b5050565b6000806105bb61085f565b90506104b18185856105cd8589610830565b6105d79190611536565b610899565b6001600160a01b0381166000908152600760205260408120546103cc565b606060048054610416906114ec565b60008061061461085f565b905060006106228286610830565b9050838110156106825760405162461bcd60e51b815260206004820152602560248201527f45524332303a2064656372656173656420616c6c6f77616e63652062656c6f77604482015264207a65726f60d81b60648201526084016101ec565b6104de8286868403610899565b60008061069a61085f565b90506104b1818585610a37565b834211156106f75760405162461bcd60e51b815260206004820152601d60248201527f45524332305065726d69743a206578706972656420646561646c696e6500000060448201526064016101ec565b60007f6e71edae12b1b97f4d1f60370fef10105fa2faae0126114a169c64845d6126c98888886107268c610e22565b6040805160208101969096526001600160a01b0394851690860152929091166060840152608083015260a082015260c0810186905260e001604051602081830303815290604052805190602001209050600061078182610e4a565b9050600061079182878787610e98565b9050896001600160a01b0316816001600160a01b0316146107f45760405162461bcd60e51b815260206004820152601e60248201527f45524332305065726d69743a20696e76616c6964207369676e6174757265000060448201526064016101ec565b6107ff8a8a8a610899565b50505050505050505050565b60008281526005602052604090206001015461082681610bdb565b61050e8383610d9d565b6001600160a01b03918216600090815260016020908152604080832093909416825291909152205490565b3390565b6000303b810361086e57503390565b60003661087c601482611549565b6108889236929061155c565b61089191611586565b60601c905090565b6001600160a01b0383166108fb5760405162461bcd60e51b8152602060048201526024808201527f45524332303a20617070726f76652066726f6d20746865207a65726f206164646044820152637265737360e01b60648201526084016101ec565b6001600160a01b03821661095c5760405162461bcd60e51b815260206004820152602260248201527f45524332303a20617070726f766520746f20746865207a65726f206164647265604482015261737360f01b60648201526084016101ec565b6001600160a01b0383811660008181526001602090815260408083209487168084529482529182902085905590518481527f8c5be1e5ebec7d5bd14f71427d1e84f3dd0314c0f7b2291e5b200ac8c7c3b925910160405180910390a3505050565b60006109c98484610830565b90506000198114610a315781811015610a245760405162461bcd60e51b815260206004820152601d60248201527f45524332303a20696e73756666696369656e7420616c6c6f77616e636500000060448201526064016101ec565b610a318484848403610899565b50505050565b6001600160a01b038316610a9b5760405162461bcd60e51b815260206004820152602560248201527f45524332303a207472616e736665722066726f6d20746865207a65726f206164604482015264647265737360d81b60648201526084016101ec565b6001600160a01b038216610afd5760405162461bcd60e51b815260206004820152602360248201527f45524332303a207472616e7366657220746f20746865207a65726f206164647260448201526265737360e81b60648201526084016101ec565b6001600160a01b03831660009081526020819052604090205481811015610b755760405162461bcd60e51b815260206004820152602660248201527f45524332303a207472616e7366657220616d6f756e7420657863656564732062604482015265616c616e636560d01b60648201526084016101ec565b6001600160a01b03848116600081815260208181526040808320878703905593871680835291849020805487019055925185815290927fddf252ad1be2c89b69c2b068fc378daa952ba7f163c4a11628f55a4df523b3ef910160405180910390a3610a31565b610bec81610be761085f565b610ec0565b50565b610bf982826103a5565b6105ac5760008281526005602090815260408083206001600160a01b03851684529091529020805460ff19166001179055610c3261085f565b6001600160a01b0316816001600160a01b0316837f2f8788117e7eff1d82e926ec794901d17c78024a50270940304540a733656f0d60405160405180910390a45050565b6000306001600160a01b037f000000000000000000000000000000000000000000000000000000000000000016148015610ccf57507f000000000000000000000000000000000000000000000000000000000000000046145b15610cf957507f000000000000000000000000000000000000000000000000000000000000000090565b50604080517f00000000000000000000000000000000000000000000000000000000000000006020808301919091527f0000000000000000000000000000000000000000000000000000000000000000828401527f000000000000000000000000000000000000000000000000000000000000000060608301524660808301523060a0808401919091528351808403909101815260c0909201909252805191012090565b610da782826103a5565b156105ac5760008281526005602090815260408083206001600160a01b03851684529091529020805460ff19169055610dde61085f565b6001600160a01b0316816001600160a01b0316837ff6391f5c32d9c69d2a47ea670b442974b53935d1edc7fd64eb21e047a839171b60405160405180910390a45050565b6001600160a01b03811660009081526007602052604090208054600181018255905b50919050565b60006103cc610e57610c76565b8360405161190160f01b6020820152602281018390526042810182905260009060620160405160208183030381529060405280519060200120905092915050565b6000806000610ea987878787610f19565b91509150610eb681610fdd565b5095945050505050565b610eca82826103a5565b6105ac57610ed781611127565b610ee2836020611139565b604051602001610ef39291906115bb565b60408051601f198184030181529082905262461bcd60e51b82526101ec9160040161133a565b6000807f7fffffffffffffffffffffffffffffff5d576e7357a4501ddfe92f46681b20a0831115610f505750600090506003610fd4565b6040805160008082526020820180845289905260ff881692820192909252606081018690526080810185905260019060a0016020604051602081039080840390855afa158015610fa4573d6000803e3d6000fd5b5050604051601f1901519150506001600160a01b038116610fcd57600060019250925050610fd4565b9150600090505b94509492505050565b6000816004811115610ff157610ff1611630565b03610ff95750565b600181600481111561100d5761100d611630565b0361105a5760405162461bcd60e51b815260206004820152601860248201527f45434453413a20696e76616c6964207369676e6174757265000000000000000060448201526064016101ec565b600281600481111561106e5761106e611630565b036110bb5760405162461bcd60e51b815260206004820152601f60248201527f45434453413a20696e76616c6964207369676e6174757265206c656e6774680060448201526064016101ec565b60038160048111156110cf576110cf611630565b03610bec5760405162461bcd60e51b815260206004820152602260248201527f45434453413a20696e76616c6964207369676e6174757265202773272076616c604482015261756560f01b60648201526084016101ec565b60606103cc6001600160a01b03831660145b60606000611148836002611646565b611153906002611536565b67ffffffffffffffff81111561116b5761116b61165d565b6040519080825280601f01601f191660200182016040528015611195576020820181803683370190505b509050600360fc1b816000815181106111b0576111b0611673565b60200101906001600160f81b031916908160001a905350600f60fb1b816001815181106111df576111df611673565b60200101906001600160f81b031916908160001a9053506000611203846002611646565b61120e906001611536565b90505b6001811115611286576f181899199a1a9b1b9c1cb0b131b232b360811b85600f166010811061124257611242611673565b1a60f81b82828151811061125857611258611673565b60200101906001600160f81b031916908160001a90535060049490941c9361127f81611689565b9050611211565b5083156112d55760405162461bcd60e51b815260206004820181905260248201527f537472696e67733a20686578206c656e67746820696e73756666696369656e7460448201526064016101ec565b9392505050565b8183823760009101908152919050565b6000602082840312156112fe57600080fd5b81356001600160e01b0319811681146112d557600080fd5b60005b83811015611331578181015183820152602001611319565b50506000910152565b6020815260008251806020840152611359816040850160208701611316565b601f01601f19169190910160400192915050565b80356001600160a01b038116811461138457600080fd5b919050565b6000806040838503121561139c57600080fd5b6113a58361136d565b946020939093013593505050565b6000806000606084860312156113c857600080fd5b6113d18461136d565b92506113df6020850161136d565b9150604084013590509250925092565b60006020828403121561140157600080fd5b5035919050565b6000806040838503121561141b57600080fd5b8235915061142b6020840161136d565b90509250929050565b60006020828403121561144657600080fd5b6112d58261136d565b600080600080600080600060e0888a03121561146a57600080fd5b6114738861136d565b96506114816020890161136d565b95506040880135945060608801359350608088013560ff811681146114a557600080fd5b9699959850939692959460a0840135945060c09093013592915050565b600080604083850312156114d557600080fd5b6114de8361136d565b915061142b6020840161136d565b600181811c9082168061150057607f821691505b602082108103610e4457634e487b7160e01b600052602260045260246000fd5b634e487b7160e01b600052601160045260246000fd5b808201808211156103cc576103cc611520565b818103818111156103cc576103cc611520565b6000808585111561156c57600080fd5b8386111561157957600080fd5b5050820193919092039150565b6bffffffffffffffffffffffff1981358181169160148510156115b35780818660140360031b1b83161692505b505092915050565b7f416363657373436f6e74726f6c3a206163636f756e74200000000000000000008152600083516115f3816017850160208801611316565b7001034b99036b4b9b9b4b733903937b6329607d1b6017918401918201528351611624816028840160208801611316565b01602801949350505050565b634e487b7160e01b600052602160045260246000fd5b80820281158282048414176103cc576103cc611520565b634e487b7160e01b600052604160045260246000fd5b634e487b7160e01b600052603260045260246000fd5b60008161169857611698611520565b50600019019056fea264697066735822122007533419ed27f1c14483a6c8b0dd846145ae38409f697e7c1171e6022b29677464736f6c63430008110033",
    "linkReferences": {}
  },
  "methodIdentifiers": {
    "DEFAULT_ADMIN_ROLE()": "a217fddf",
    "DOMAIN_SEPARATOR()": "3644e515",
    "allowance(address,address)": "dd62ed3e",
    "approve(address,uint256)": "095ea7b3",
    "balanceOf(address)": "70a08231",
    "decimals()": "313ce567",
    "decreaseAllowance(address,uint256)": "a457c2d7",
    "getRoleAdmin(bytes32)": "248a9ca3",
    "grantRole(bytes32,address)": "2f2ff15d",
    "hasRole(bytes32,address)": "91d14854",
    "increaseAllowance(address,uint256)": "39509351",
    "name()": "06fdde03",
    "nonces(address)": "7ecebe00",
    "permit(address,address,uint256,uint256,uint8,bytes32,bytes32)": "d505accf",
    "renounceRole(bytes32,address)": "36568abe",
    "revokeRole(bytes32,address)": "d547741f",
    "supportsInterface(bytes4)": "01ffc9a7",
    "symbol()": "95d89b41",
    "totalSupply()": "18160ddd",
    "transfer(address,uint256)": "a9059cbb",
    "transferFrom(address,address,uint256)": "23b872dd"
  },
  "id": 36
}