{
  "abi": [
    {
      "inputs": [
        {
          "internalType": "address",
          "name": "_target",
          "type": "address"
        }
      ],
      "stateMutability": "nonpayable",
      "type": "constructor"
    },
    {
      "inputs": [],
      "name": "lpToken",
      "outputs": [
        {
          "internalType": "contract IERC20",
          "name": "",
          "type": "address"
        }
      ],
      "stateMutability": "view",
      "type": "function"
    },
    {
      "inputs": [],
      "name": "pwn",
      "outputs": [],
      "stateMutability": "payable",
      "type": "function"
    },
    {
      "inputs": [],
      "name": "setup",
      "outputs": [],
      "stateMutability": "payable",
      "type": "function"
    },
    {
      "stateMutability": "payable",
      "type": "receive"
    }
  ],
  "bytecode": {
    "object": "0x60a060405234801561001057600080fd5b5060405161095b38038061095b83398101604081905261002f91610040565b6001600160a01b0316608052610070565b60006020828403121561005257600080fd5b81516001600160a01b038116811461006957600080fd5b9392505050565b6080516108bc61009f6000396000818160f5015281816102ef01528181610397015261063e01526108bc6000f3fe6080604052600436106100385760003560e01c80635fcbd285146101a6578063ba0bba40146101ea578063dd365b8b146101f257600080fd5b366101a1576100f16040518060400160405280602081526020017f647572696e672072656d6f7665204c50202d207669727475616c20707269636581525073dc24316b9ae028f1497c275eb9192a3ea0f670226001600160a01b031663bb7b8b806040518163ffffffff1660e01b8152600401602060405180830381865afa1580156100c8573d6000803e3d6000fd5b505050506040513d601f19601f820116820180604052508101906100ec919061070f565b6101fa565b60007f00000000000000000000000000000000000000000000000000000000000000006001600160a01b0316633d18b9126040518163ffffffff1660e01b8152600401602060405180830381865afa158015610151573d6000803e3d6000fd5b505050506040513d601f19601f82011682018060405250810190610175919061070f565b905061019f604051806040016040528060068152602001651c995dd85c9960d21b815250826101fa565b005b600080fd5b3480156101b257600080fd5b506101ce7306325440d014e39736583c165c2963ba99faf14e81565b6040516001600160a01b03909116815260200160405180910390f35b61019f610243565b61019f6103ff565b61023f8282604051602401610210929190610728565b60408051601f198184030181529190526020810180516001600160e01b03166309710a9d60e41b1790526106ee565b5050565b604080518082018252348082526000602083018190529251630b4c7e4d60e01b815291929173dc24316b9ae028f1497c275eb9192a3ea0f6702291630b4c7e4d916102959086906001906004016107a0565b60206040518083038185885af11580156102b3573d6000803e3d6000fd5b50505050506040513d601f19601f820116820180604052508101906102d8919061070f565b60405163095ea7b360e01b81526001600160a01b037f0000000000000000000000000000000000000000000000000000000000000000166004820152602481018290529091507306325440d014e39736583c165c2963ba99faf14e9063095ea7b3906044016020604051808303816000875af115801561035c573d6000803e3d6000fd5b505050506040513d601f19601f8201168201806040525081019061038091906107bb565b5060405163534a7e1d60e11b8152600481018290527f00000000000000000000000000000000000000000000000000000000000000006001600160a01b03169063a694fc3a90602401600060405180830381600087803b1580156103e357600080fd5b505af11580156103f7573d6000803e3d6000fd5b505050505050565b604080518082018252348082526000602083018190529251630b4c7e4d60e01b815291929173dc24316b9ae028f1497c275eb9192a3ea0f6702291630b4c7e4d916104519086906001906004016107a0565b60206040518083038185885af115801561046f573d6000803e3d6000fd5b50505050506040513d601f19601f82011682018060405250810190610494919061070f565b90506105216040518060400160405280602081526020017f6265666f72652072656d6f7665204c50202d207669727475616c20707269636581525073dc24316b9ae028f1497c275eb9192a3ea0f670226001600160a01b031663bb7b8b806040518163ffffffff1660e01b8152600401602060405180830381865afa1580156100c8573d6000803e3d6000fd5b6040805180820182526000808252602082015290516316cd8e2760e21b815273dc24316b9ae028f1497c275eb9192a3ea0f6702290635b36389c9061056c90859085906004016107e4565b60408051808303816000875af115801561058a573d6000803e3d6000fd5b505050506040513d601f19601f820116820180604052508101906105ae91906107f8565b5061063a6040518060400160405280601f81526020017f61667465722072656d6f7665204c50202d207669727475616c2070726963650081525073dc24316b9ae028f1497c275eb9192a3ea0f670226001600160a01b031663bb7b8b806040518163ffffffff1660e01b8152600401602060405180830381865afa1580156100c8573d6000803e3d6000fd5b60007f00000000000000000000000000000000000000000000000000000000000000006001600160a01b0316633d18b9126040518163ffffffff1660e01b8152600401602060405180830381865afa15801561069a573d6000803e3d6000fd5b505050506040513d601f19601f820116820180604052508101906106be919061070f565b90506106e8604051806040016040528060068152602001651c995dd85c9960d21b815250826101fa565b50505050565b80516a636f6e736f6c652e6c6f67602083016000808483855afa5050505050565b60006020828403121561072157600080fd5b5051919050565b604081526000835180604084015260005b818110156107565760208187018101516060868401015201610739565b506000606082850101526060601f19601f8301168401019150508260208301529392505050565b8060005b60028110156106e8578151845260209384019390910190600101610781565b606081016107ae828561077d565b8260408301529392505050565b6000602082840312156107cd57600080fd5b815180151581146107dd57600080fd5b9392505050565b828152606081016107dd602083018461077d565b60006040828403121561080a57600080fd5b82601f83011261081957600080fd5b6040516040810181811067ffffffffffffffff8211171561084a57634e487b7160e01b600052604160045260246000fd5b806040525080604084018581111561086157600080fd5b845b8181101561087b578051835260209283019201610863565b50919594505050505056fea2646970667358221220583f549a86f03ad210196deddb99a51bcdeb417570b5c1b9f14eaf1720362ee264736f6c63430008110033",
    "linkReferences": {}
  },
  "methodIdentifiers": {
    "lpToken()": "5fcbd285",
    "pwn()": "dd365b8b",
    "setup()": "ba0bba40"
  },
  "id": 87
}